:400000000080002011000000D1210000D1210000034A08B51268034B1A6002F0F9F800BFFA460040BC76004010B5054C237833B9044B13B10448AFF300800123237010BDA9
:400040002884FF1F0000000020370000084B10B51BB108490848AFF300800848036803B910BD074B002BFBD0BDE81040184700BF000000002C84FF1F20370000C880FF1F8E
:400080000000000010B52A4A2A4C137882B003F0F10343F00203137023784FF47A7003F0F10343F00C032370237843F00103237001F036FF2378012003F0FE03237002F0EE
:4000C000B3FA23780122134311462370002000F03DFE0A2002F0A8FAC82002F0A5FA2378012003F0FE03237002F09EFA2378802243F0010323701146002000F027FE98B922
:400100000DF10701002000F055FD18B99DF90730002B02DB084802F0E1FB01F019FD00F07DF9002002B010BD044802F0D7FBE7E70F5000400D5000403C370000243700009F
:4001400010B5FFF79FFF044608B900F03FFB204610BD00BF30B5644C83B001F05FF800F079F92368052B35D000F0D6FA0DF1070001F0E8F868B900F0FDF800F04FF901F008
:4001800003FD054670B92368574C013325D003B030BD9DF8070001F0E7F801F0F5FC05460028F0D02268514B013283FB0213A3EBE27303EB4303A2EB430319464C48236007
:4001C00002F01AFB2368052BE1D8DFE803F032475366791D00F006F9D1E7464802F07EFB00F01CF92A460121284600F029FA2A462946012000F024FA2A462946022000F04B
:400200001FFA256003B030BD3B4802F067FB00221146104600F014FA00221146012000F00FFA00221146022000F00AFA00F0A2F8ADE7304802F052FB00F0F0F80022104695
:40024000012100F0FDF900221146012000F0F8F900221146022000F0F3F998E7274802F03DFB00221046012100F0EAF9012108460022EBE7224802F031FB00221046012179
:4002800000F0DEF901210846002200F0D9F900220121022000F0D4F979E71A4802F01EFB00221046022100F0CBF900220221012000F0C6F902210846002200F0C1F966E745
:4002C000114802F00BFB00221046022100F0B8F930220221012000F0B3F902210846602200F0AEF953E700BFCC80FF1FABAAAA2A4C370000703700005C380000AC37000088
:40030000DC3700000C38000030380000084B1A7830B1052A0BD0042206481A7002F0DEBA032A04D0022204481A7002F0D7BA7047D080FF1FA0380000C438000038B50A4BED
:400340001C780CB1204638BD054628B1042207481A7002F0C3FAF5E7022205481A7002F0BDFA284638BD00BFD080FF1FA0380000C438000030B50C4B0022597A83B09142E4
:40038000DC6814BF02250125012101A88DF807508DF804401A708DF806208DF8051001F019FC03B030BD00BFD080FF1F0C4B0122597A30B5002918BF154683B0DC6808BFFC
:4003C0000225002101A88DF807508DF804401A708DF805208DF8061001F0FCFB03B030BDD080FF1F30B50C4B0022597E83B09142DC6914BF02250125012101A88DF807505B
:400400008DF804401A748DF806208DF8051001F0E1FB03B030BD00BFD080FF1F0C4B0122597E30B5002918BF154683B0DC6908BF0225002101A88DF807508DF804401A7492
:400440008DF805208DF8061001F0C4FB03B030BDD080FF1F30B54C4C85B02378023B032B27D8DFE803F067025C5A484D606800F0FFFE85421DD200F0E5FE227A6060424B2D
:40048000002A5AD05A7ADD68002A14BF022101210122002301A88DF804508DF807108DF805208DF8063001F095FB237A83F001032372237C023B032B27D8DFE803F02802AD
:4004C0003836324D606900F0D3FE85421DD200F0B9FE227E60612C4B002A41D05A7EDD69002A14BF022101210122002303A88DF80C508DF80F108DF80D208DF80E3001F0D9
:4005000069FB237E83F00103237605B030BD03232374606900F0ACFED9E71D4DA6E705232370606800F0A4FEA5E7194DCAE705232374EEE703232370F3E7597ADD6800290D
:400540000CBF02210121012368468DF802208DF800508DF803108DF8013001F03BFBA4E7597EDD6900290CBF02210121012302A88DF80A208DF808508DF80B108DF809300F
:4005800001F028FBBDE700BFD080FF1F40420F00A086010070B5134CC178134A54F82130054682FB0302D8174FF47A76C0EBA21206FB12327AB10133012044F82130FFF751
:4005C000BDFE20F00400012804D0BDE870400120FFF79CBE70BD054802F00EF9E97854F82130E8E74484FF1FD34D62100039000070B5C1780E4E8D007319DB680D4ADC1718
:4006000082FB03E2C4EBA2124FF47A7404FB12323AB90446084802F0EFF8E1788D007319DB6835440133EB60BDE87040FFF7BEBE4484FF1FD34D621020390000704700BF60
:4006400002282DE9F04159DC304D05EB00156E6A002E53D0336D3046884614469847074648BB95F8203024F00F0403F00F03434544EA03043ED004F0F00444EA0804B8F11D
:40068000010F85F8204020D02AD3B8F1020F18D133693046984700F0D5FD04F0F0010123A8612F29EB613046B36A8CBF00210121BDE8F0411847164802F010F90020BDE8E0
:4006C000F0816FF01500BDE8F081336930469847B36A304640F2FF319847AF61BDE8F081736930469847B36A304639469847AF61BDE8F08185F82040BDE8F081054802F09A
:40070000EDF86FF01500BDE8F08100BF4484FF1F5C390000403900002DE9F04D274CDFF8A8800026E56845B12B6D2846984758B9277A07F00F03022B0BD00136032E04F164
:400740001004EFD1BDE8F08D31461D4802F054F8F3E7206800F08CFDB0F57A7FEDD3606807F0F0070130A0FB0823C11A03EB5101490AC1EB8121411A2F2F61600CD95F2FDA
:4007800014D8FF31A1FB08ABCBEB01030BEB53035B0AC3EB8323C91A89B2AB6A284698470028CAD0074802F099F8C6E78F2F94BF01F2FF1101F2FF21E4E700BF5C84FF1F9F
:4007C0008C390000B0390000051040002DE9F043254F85B00DF1040897E8070088E8070030220021214801F0FEFF204E0C37002558F825904FF47A715FFA89F001F00AF865
:400800001B490446F06048B357F8252000F0D2FFF0B900221749204600F0E4FF90B9A36A00212046984740B90135032D06F11006DED1002005B0BDE8F083E1780E4801F0A2
:40084000DBFFF1E70246E1780C4801F0D5FFE6E70246E1780A4801F0CFFFDAE74946094801F0CAFFE0E700BFE83800005C84FF1FF105000095050000643A0000243A000002
:40088000E4390000CC390000F0B5044660F07F00C6B2750085F0310316F0800FDBB2EDB218BF1D466E0086F0310315F0800FDBB2F5B218BF1D466E0086F0310315F0800F01
:4008C000DBB2F5B218BF1D466E0086F0310315F0800FDBB2F5B218BF1D466E0086F0310315F0800FDBB2F5B218BF1D466E0086F0310315F0800FDBB2F5B218BF1D466E00CE
:4009000086F0310315F0800FDBB2F5B218BF1D466E0015F0800F86F03103F6B2DBB208BF33464B40DBB25E000D4686F0310113F0800FCBB2F1B218BF19464E0086F0310399
:4009400011F0800FDBB2F1B218BF19464E0086F0310311F0800FDBB2F1B218BF19464E0086F0310311F0800FDBB2F1B218BF19464E0086F0310311F0800FDBB2F1B218BF16
:4009800019464E0086F0310311F0800FDBB2F1B218BF19464E0011F0800F86F03103F6B2DBB208BF3346590081F0310613F0800FC9B2F3B214BF1E460E4683B07A4F8DF82E
:4009C00005508DF80400387800F0FE003870174601F03EFD9DF8040001F01AFD9DF8050001F016FD304601F013FD01F005FDC207FBD56D4E01F01EFD337843F001033370BC
:400A000017B9002003B0F0BD620082F0310314F0800FDBB2D2B218BF1A46510081F0310312F0800FDBB2CAB218BF1A46510081F0310312F0800FDBB2CAB218BF1A465100A4
:400A400081F0310312F0800FDBB2CAB218BF1A46510081F0310312F0800FDBB2CAB218BF1A46510081F0310312F0800FDBB2CAB218BF1A46510081F0310312F0800FDBB25E
:400A8000CAB218BF1A46510012F0800F81F03103C9B2DBB208BF0B4683F0FF03590081F0310213F0800FD3B2CAB218BF1A46510081F0310312F0800FDBB2CAB218BF1A46D9
:400AC000510081F0310312F0800FDBB2CAB218BF1A46510081F0310312F0800FDBB2CAB218BF1A46510081F0310312F0800FDBB2CAB218BF1A46510081F0310312F0800F1A
:400B0000DBB2CAB218BF1A46510081F0310312F0800FDBB2CAB218BF1A46530083F0310112F0800FCAB2DBB218BF1346FF228DF804408DF806308DF80520337801A803F056
:400B4000FE033370032101F099F93378044643F00103337020B10146144801F04DFE50E7642001F085FD337801AA03F0FE03337021460323204601F099F901F03DFCC30726
:400B8000FBD5094A137843F0010313709DF8052095423FF436AF2946054801F02DFE6FF0150003B0F0BD00BF0D5000404C3B0000183B0000420082F0310310F0800FDBB23E
:400BC000D2B218BF1A4670B5540084F0310312F0800FDBB2E4B218BF1C46620082F0310314F0800FDBB2D2B218BF1A46540084F0310312F0800FDBB2E4B218BF1C466200FE
:400C000082F0310314F0800FDBB2D2B218BF1A46540084F0310312F0800FDBB2E4B218BF1C46620082F0310314F0800FDBB2D2B218BF1A46540084F0310312F0800FDAB24E
:400C4000E3B218BF134683F0FF035C0084F0310213F0800FD3B2E2B218BF1A46540084F0310312F0800FDBB2E4B218BF1C46620082F0310314F0800FDBB2D2B218BF1A4689
:400C8000540084F0310312F0800FDBB2E4B218BF1C46620082F0310314F0800FDBB2D2B218BF1A46540084F0310312F0800FDBB2E4B218BF1C46620082F0310314F0800FE4
:400CC000DBB2D2B218BF1A46530083F0310412F0800FE2B2DBB218BF134682B01A4CFF228DF804008DF806308DF8052023780E4603F0FE03237001A8032101F0BFF82378A2
:400D0000054643F00103237008B102B070BD642001F0AEFC237801AA03F0FE03237029460323284601F0C2F801F066FBC307FBD5054A0020137843F0010313709DF8053002
:400D4000337002B070BD00BF0D5000402DE9F0410546400080F0310315F0800FDBB2C0B218BF1846440084F0310310F0800FDBB2E4B218BF1C46600080F0310314F0800FE9
:400D8000DBB2C0B218BF1846440084F0310310F0800FDBB2E4B218BF1C46600080F0310314F0800FDBB2C0B218BF1846440084F0310310F0800FDBB2E4B218BF1C46600026
:400DC00080F0310314F0800FDBB2C0B218BF1846440084F0310310F0800FD8B2E3B218BF034683F0FF035C0084F0310013F0800FC3B2E0B218BF1846440084F0310310F09E
:400E0000800FDBB2E4B218BF1C46600080F0310314F0800FDBB2C0B218BF1846440084F0310310F0800FDBB2E4B218BF1C46600080F0310314F0800FDBB2C0B218BF18465A
:400E4000440084F0310310F0800FDBB2E4B218BF1C46600080F0310314F0800FDBB2C0B218BF1846430083F0310410F0800FE0B2DBB218BF034682B00F4FFF208DF80500DE
:400E80008DF804508DF806303B78884603F0FE033B7001A80321144600F0F0FF3B78064643F001033B7058B10146044801F0A4FC304602B0BDE8F0810D5000407C3B0000D8
:400EC000642001F0D5FB3A78032302F0FE023A70314601AA304600F0E9FF01F08DFAC107FBD5CB4E08EA0404337843F0010333709DF8053023EA080848EA04049C4200F032
:400F0000608165F07F01C8B2420082F0310310F0800FDBB2D2B218BF1A46500080F0310312F0800FDBB2C0B218BF1846420082F0310310F0800FDBB2D2B218BF1A465000FA
:400F400080F0310312F0800FDBB2C0B218BF1846420082F0310310F0800FDBB2D2B218BF1A46500080F0310312F0800FDBB2C0B218BF1846420082F0310310F0800FDBB28C
:400F8000D2B218BF1A46500080F0310312F0800FDAB2C3B218BF134663405A0082F0310013F0800FC3B2D0B218BF1846420082F0310310F0800FDBB2D2B218BF1A46500053
:400FC00080F0310312F0800FDBB2C0B218BF1846420082F0310310F0800FDBB2D2B218BF1A46500080F0310312F0800FDBB2C0B218BF1846420082F0310310F0800FDBB20C
:40100000D2B218BF1A46500080F0310312F0800FDAB2C3B218BF13468DF804108DF805403078590081F0310213F0800FC9B2D3B200F0FE00307014BF1E460E4601F008FA99
:401040009DF8040001F0E4F99DF8050001F0E0F9304601F0DDF901F0CFF9C207FBD501F0E9F96A0082F0310315F0800FDBB2D2B218BF1A46510081F0310312F0800FDBB243
:40108000CAB218BF1A46510081F0310312F0800FDBB2CAB218BF1A46510081F0310312F0800FDBB2CAB218BF1A46510081F0310312F0800FDBB2CAB218BF1A46510081F066
:4010C000310312F0800FDBB2CAB218BF1A46510081F0310312F0800FDBB2CAB218BF1A46510012F0800F81F03103C9B2DBB208BF0B4683F0FF03590081F0310213F0800F79
:40110000D3B2CAB218BF1A46510081F0310312F0800FDBB2CAB218BF1A46510081F0310312F0800FDBB2CAB218BF1A46510081F0310312F0800FDBB2CAB218BF1A465100D1
:4011400081F0310312F0800FDBB2CAB218BF1A46510081F0310312F0800FDBB2CAB218BF1A46510081F0310312F0800FDBB2CAB218BF1A46530083F0310112F0800FCAB266
:40118000DBB218BF1346224EFF203278032142F0010232708DF804508DF805008DF80630337801A803F0FE03337000F067FE3378054643F00103337038B10146154801F092
:4011C0001BFB002002B0BDE8F081642001F050FA337801AA03F0FE03337029460323284600F064FE01F008F9C307FBD5084A137843F0010313709DF805209442E1D0214625
:40120000054801F0F9FA6FF0150002B0BDE8F0810D5000404C3B0000183B000000B583B001F07EFA064B0190019A19688A4202D95968013159601A6003B05DF804FB00BFE8
:401240008C84FF1F08B501F06BFA084B1A6859689042C0F1FF1288BF013102F57F42186088BF596042EA016008BD00BF8C84FF1F10B5044601F054FA0D4A13685168984268
:40128000C0F1FF1388BF013103F57F4343EA016388BF51609C42A3EB0403106088BF03F1FF3304482433A0FB0330000910BD00BF8C84FF1F398EE33810B50D4C0D4A236849
:4012C0004FF47A7082FB0312D917C1EBA21200FB12321AB9084801F001FB236801332360FFF7ACF9BDE810400020FFF727B800BF9484FF1FD34D6210943B000010B50D4C55
:40130000FFF79CF963680C4AD91782FB03024FF47A70C1EBA21200FB12321AB9074801F0DDFA6368013363600020BDE81040FFF705B800BF9484FF1FD34D6210A03B0000ED
:40134000704700BF10B5044618202146FFF732FC38B9207800F0F7002070003018BF012010BD012010BD00BF30B5054689B020220021684601F037FA0E490F4A0F4B15F0D8
:40138000070004910592069310D115F0F80F0BD0042445FA04F3DB0703D55DF8243003B198470134082CF4D109B030BD00F038FBEBE700BFFD120000B9120000411300008F
:4013C0008089704708B520B1C378022B01D8407808BD0349034801F00FFA012008BD00BFA83B0000483C000008B550B1C378022B07D803781BB100230370184608BD1846E1
:4014000008BD0349034801F0F7F96FF0150008BDB83B0000483C000008B520B1C378022B01D8002008BD0349034801F0E5F96FF0150008BDCC3B0000483C000008B520B153
:40144000C378022B01D8007808BD0349034801F0D3F9012008BD00BFD83B0000483C000038B5837873B10B4C0B4A23684FF47A7582FB0312D917C1EBA21205FB123212B100
:401480000133236038BDC178044801F0B5F92368F6E700BF9C84FF1FD34D62105C3C000038B5837873B10B4C0B4A63684FF47A7582FB0312D917C1EBA21205FB123212B12F
:4014C0000133636038BDC178044801F095F96368F6E700BF9C84FF1FD34D62106C3C000038B5837873B10B4C0B4AA3684FF47A7582FB0312D917C1EBA21205FB123212B13F
:401500000133A36038BDC178044801F075F9A368F6E700BF9C84FF1FD34D62107C3C000038B5837873B10B4C0B4AE3684FF47A7582FB0312D917C1EBA21205FB123212B14E
:401540000133E36038BDC178044801F055F9E368F6E700BF9C84FF1FD34D62108C3C000010B580B1C3780446022B0CD8437843B9027914201146FFF7E9FB18B901236370D1
:4015800010BD002010BD0349034801F035F96FF0150010BDE83B0000483C00002DE9F84300283DD0C3780446022B39D8B1F5806F0D463DD28789B94213D090F80880012272
:4015C0004046C1F3870194F80990FFF75DF90646F8B9012205F003014846FFF755F9064618B9A5810020BDE8F8834946154801F003F9154801F072F94FF6FF739F42F0D060
:40160000C7F3870140460122FFF73EF93046BDE8F88341460D4801F0EFF83046BDE8F8830B490C4801F0E8F86FF01500BDE8F8830A460948064901F0DFF86FF01500BDE8D4
:40164000F88300BFD83C0000283D0000BC3C0000F03B0000483C00009C3C000008B548B1C378022B06D8BDE80840417900221420FFF76CBB0349044801F0BEF86FF015006F
:4016800008BD00BF043C0000483C000008B548B1C378022B06D8BDE80840427914201146FFF754BB0349044801F0A6F86FF0150008BD00BF043C0000483C000010B568B1ED
:4016C000C3780446022B09D8407830B1002221791420FFF73BFB00B9607010BD0349044801F08AF86FF0150010BD00BFE83B0000483C0000274B2DE9F04199420C46054669
:4017000038D84FF4961303FB01F0234900F1436303F5A023A1FB0331090DB1F5806F24D31E4801F069F840F2FF31FF274FF0030822461B4801F060F8AE79394630460122B1
:40174000ED79FFF7A1F80446E8B9414601222846FFF79AF838B12946124801F04DF8124801F0BCF82046BDE8F08101F00308C1F38707DDE70D4801F0B1F8FF274FF0030825
:4017800040F2FF31D4E73146094801F035F82046BDE8F081746258556BCA5F6B943D0000B83D0000D83C0000283D0000783D0000BC3C000098B151B183786BB1036B1BB998
:4017C00001634263002070476FF00F007047036B2BB18378002BF3D16FF00A0070476FF01500704798B151B183786BB1836B1BB98163C263002070476FF00F007047836B4E
:401800002BB18378002BF3D16FF00A0070476FF015007047022800F2D3806D4B2DE9F0479C469E461E46894619461A463CF804AF3EF8088F9CF802C08AB05C25044605FB5C
:4018400000F58DF80AC09EF8020036F80CCF31F810EF8DF80E00B0788E7832F8141F8DF8120090780AAF03F118028DF81A00ADF8181007CA07E907003A468DF816601E8882
:40188000ADF80C80ADF804603E469B78DFF88C81002122448DF8063008EB0503ADF808A0ADF810C0ADF814E0DC74197412F8240C07F8251D196499641965996512F81C1C4B
:4018C00006EB8406187512F8200C56F80C6CD97512F8141C587512F8100C9E76597612F8186C3C493C4A18763C481A6259623C4A3C4998633C48DA6359633C4A3C49186698
:401900003C485A6699663C4A3C49186301209A62D96208F1100298749E75394614201544FFF748F9002847D15C2606FB04869DF80330327D32481340002B14BF0123002343
:40194000304AF17C18BF024673742F4800F054FF3946707EFFF72EF9F8B99DF80330394603F00303307EB383FFF724F9A8B99DF80310B38B726B43EA8103B3834946284646
:401980009047F8B95C2000FB04842846A36A984750B928460AB0BDE8F0871C4800F09EFF00200AB0BDE8F087E17C194800F024FF28460AB0BDE8F087164800F08FFFB3E787
:4019C000002070474946144800F016FFDAE700BF143C0000BD160000611500009D150000C1130000F51600003D14000019140000E9130000C51300008D1600005D1600000E
:401A0000E03D0000E43D00000C3E0000283E0000783E0000E83D0000503E00009C84FF1F2DE9F04F3B4C8046A4F11006B346DFF8F0A08FB0002548FA05F3DA0711D5A378E4
:401A4000BBB9D6F824314FF47A708AFB0312D917C1EBA21200FB1232002A4FD00133C6F824310135032D04F15C04E4D10FB0BDE8F08F294B0DF108090FCB89E80F00636BEB
:401A8000276B0A93636CA06B216CA26C06970C93E76BE36C07900891A07A0DF1070109920B970D93FFF786F878BB9DF8073000273B41DB0708D506AB53F827308BB10AAA60
:401AC00052F82710204698470137042F12D09DF807303B41DB07F7D506AB53F82730002BEDD159F82730002BEED0204601379847042FECD1636D20469847B2E72946074837
:401B000000F07AFEDBF82431A8E7FF2213468DF80720CCE7AC84FF1F383C00009C3E0000D34D621010B50021042000F025FD00F039FDC30704D5054C01226368227003B115
:401B400010BDFFF77FFB606010BD00BFC485FF1F08B50B4800F02EFD00211C2000F00CFD0121042000F008FD064A137843F001031370137803F0F10343F00403137008BD30
:401B8000251B00000A50004038B50F4CA36825783BB92B461BB101220023A2602370284638BD6068FFF764FB084B984201D82378F0E7002301210420A360636000F0DCFC60
:401BC000034800F08BFEF2E7C485FF1FA0860100D03E0000314A0378126893420ED2112B0CD070B45D002E4CEA18D200A65AA118B20706D45F22104670BC7047162210460C
:401C000070474278012A02D0AAB11622F3E7C278012A2CD025D3022AF7D148680022037803F0F10343F00C03037049680B7843F001030B70DFE7C078012828D025D302286C
:401C4000E3D14E680420317841F0010131701D4404EBC50461680B7803F0F10303430B70C9E749680B7803F0F1030B70C3E748680022037803F0F10343F00C0303704968C2
:401C80000B7803F0FE030B70B5E70220DFE74E680620317801F0FE013170D8E7F080FF1FF480FF1F104B1B6898420AD2112808D000EB40000D4BC0001A5A920705D45F206C
:401CC000704700230B7016207047184443681B7803F0100303F0FF0013B901230B70704702230B7000207047F080FF1FF480FF1F134B1B6898420BD2112809D0114B00EB66
:401D00004000C0001A5A1844930703D45F2070471620704783780BB110207047012908D00229F5D142681846137843F001031370704742681846137803F0FE0313707047E9
:401D4000F080FF1FF480FF1F03480449044A054B816080E80C007047D085FF1FD51B0000A51C0000F11C0000F0B583B062B600F087FC00F0C5FC6FF07F4000F0C9FC0120C8
:401D800000F0D6FC00F0E0FC00F0A0FAFFF7DCFF154800F0A3FD00F035F8144800F09EFD134B144D186842F21077019001A8FFF711FF114800F092FD104EFEF7C1F92C6896
:401DC00002E02C6801342C60FEF7C4F986FB0432E317C3EB223307FB1344002CF1D1084800F07CFDEDE700BFEC3E0000FC3E0000E83E0000DC85FF1F0C3F0000AD8BDB68E4
:401E0000203F000010B5184818490378184C03F0F10343F00C0303700378164A03F0FE0303700B7803F0F10343F00C030B700B7803F0FE030B70237803F0F10343F002032D
:401E40002370137803F0F10343F00C031370137843F00103137000F00DFB00F07BFA064B01221A7010BD00BF655000400E5000400F5000400D500040E085FF1F38B50D46DA
:401E8000044600F0E5FA4DB1013DADB22544013C14F8010F00F0BCFAAC42F9D100F0ACFAC307FBD500F0C6FA002038BD0B442DE9F0479DB28DB34FF00009924680460F46F3
:401EC0004C46A54212D909F10406A64202D80DE0B4420BD2A7424FF0000088BF18F804000134A4B200F094FAA542F1D800F08AFA83060BD54F450DD800F096FAC7EB090328
:401F00000AF8030009F101091FFA89F9A945D8D3BDE8F08700F088FAF4E7BDE8F08700BF08B544F24F63421E9A4201D95F2008BD4FF4FA6303FB00F0054B01210344B3FB2C
:401F4000F0F0013880B200F0A5FA002008BD00BFFFA14A04012810B509D1084B1B7833B114460846D1B200F0D9F9204610BD00F003FC092303604FF0FF3010BDE185FF1F06
:401F8000F8B572B642F25124734A744B61261670734F03221A80734D182373483B70734905272F80724E0370724A47200880724F4D203370108006265220704A3B7085F8E2
:401FC0007C6281F8780111786D486E4AC9B24FF4E36687F81316A5F89E61048015784FF4F0701C4605F00105164600F0B5FB01E0032D0DD033784FF4F07003F0010343EA63
:40200000450500F0A9FB013C05F00305F0D1FEE75D4E5E4A35465E484FF48077178000235C490727177003705B4F48200870022013703B7001F8070C1C4692F89E3343F0D7
:402040000F0382F89E3304EB4403AA8856F813000134002100F0C7FB072C05F10605F2D14E4D002404EB840306EB43032A890134196BD86A00F0ACFB032C05F10A05F1D194
:40208000474E484F002556F8043F13F0FF0E23F0FF0413D005F110530EF1FF3E03F151005FFA8EFE7044503340005B001A785978023383421155F9D101357544BE42E2D175
:4020C00039493A4A0B783A4D43F002030B701378A1F5863143F0020313702A78413942F040022A700A78334E42F01002324B0A70324C03CB3060716093E8070003C40C33ED
:4021000022802F4A03CBC4F82A00C4F82E1003CB1060516003CBA4F6A6643062716203CB10622378274843F0080323700378DFF89CE0DBB22448516203F007021B098EF8D5
:4021400000208E340370442795E80F0086F8747707C42380F8BD00BF0048004080400040824000408440004086400040884000408A4000408C4000408E4000400F010049AF
:4021800020420040254200402C3F000004400040064000400840004009400040583F0000FCFFFF479C0000480350014013500140A043004002510040F0080048C051004015
:4021C00012510040CF0100496F5800406E58004008B500F0D1FA03680C2B00D0FEE7FEE7094908B50A68094B1044C31AB3F5007F02DC0860104608BD00F0BEFA0C234FF0BE
:40220000FF320360104608BDAC83FF1F1086FF1F80B5134FF7B1134E002556F80C0C56F8084C56F8102C03463CB1043A52F8041F43F8041B191AA142F8D156F8040C1A46BF
:4022400020B142F8045BD11A8842FAD1013F06F11006E2D100F096FAFFF786FDFEE700BF01000000444000000E4B0F4A0F491A600B680F4A43F400730E480B600023032B46
:4022800094BF50F823100C490133302B42F8041FF5D10A4B0A4918780A4A0B4B08701A60FFF76EBE0CED00E00004FA0514ED00E0FC7FFF1F00000000D1210000BC76004099
:4022C000C080FF1F0080FF1F08ED00E0F8B50E4B1A784AB90D4E0E4C0E48062747250121377025700270197000F03EFA04460A4A137843F01003137000F072F92046BDE8F5
:40230000F84000F035BA00BFE185FF1F2B6500403B65004089650040996500400A4B1B7883B179B130B44C1EE4B2084A084D0444411E11F8010F13785B07FCD4A14228705E
:40234000F7D130BC704700BFE185FF1F696500404965004070B51E4C2378A3B11D4C00F003FA23781C4943F0200323700B781B4A43F010030B70137843F010031370BDE854
:40238000704000F0F5B9164B0F21164A19701378990604D514490B7813789B06FBD400F0E3F90D4B114E1A780E4D42F001021A701A7802F0FE021A7000F0DAF90C480D49CD
:4023C0000023012236782D7803700B702270C5E7E385FF1F98650040996400409A640040886500406A6400405964004069640040896400408A640040014B1878704700BFE8
:4024000069640040014B1878704700BF6A640040034A13785B07FCD5024B1870704700BF6964004049640040014B1878704700BF59640040044A1378990604D503490B7870
:4024400013789B06FBD470476A6400405964004008B500F089F9064B1A7842F001021A701A7802F0FE021A70BDE8084000F080B9996400400549064A0B7843F001030B709A
:40248000137843F001031370704700BFA2430040B2430040F0B4314D314E2A7833889BB298420BD02F4C02F007022478E4B24AB933B930802B7803F0BF032B70F0BC70476A
:4024C000002843D014F0010422D0274F274D284E00223A7001272F70327015F8082C02F07F0205F8082C96F86E2016072BD41E4A204F154607263B8016702B781A4A13F04A
:402500000103FAD1174E357805F0FE0535701370144B1A78D5070FD56FF4687213441A460029144C14BF03210121208019701378DB07FCD4F0BC7047094A10801A781443BE
:402540001C70F0BC70470028E2D1D0E72B7843F040032B703080F0BC704700BF8240004080400040A243004001400040104000401440004002400040430702D5064BCAB218
:402580001A70020702D5054BCAB21A70C30602D5034BC9B2197070470A4500400B4500400C450040024B1878C0F38200704700BF8145004070B4064B064E1D6806490423B0
:4025C000E024064A3360A8640C7070BC1360704708ED00E080E100E002E400E000E100E00549064A0B7843F008030B70137843F008031370704700BFA2430040B243004083
:4026000038B5074B1B68DB0300D438BD054C04F1140554F8043B03B19847AC42F9D138BD10E000E0E485FF1FB0F5004F70B506461AD904460D4DA4F50044686800F08CF893
:40264000B4F5004FF7D8A6F50043013B23F4FF4323F07F03A6F50046F61AA86800FB06F0BDE8704000F078B8004DF6E7B083FF1F024B1B7800FB03F000F06EB8B083FF1F74
:40268000164AF0B49369EBB915491648C968164C164D1360A0FB01012D682068144E40F00400EE63134F144E144D53609360D3601361890920604FF40040012439609461F6
:4026C00033602860084BF0BC1A6842F002021A601A6842F001021A60704700BFE485FF1FB083FF1FD34D621010E000E008ED00E00126000014E000E018E000E000E100E044
:40270000024A136823F002031360704710E000E0024B20F07F401860704700BF14E000E0024B186820F07F40704700BF18E000E0044A012813680CBF43F0040323F00403E7
:402740001360704710E000E0014B00221A60704718E000E0000000000230800803D000BF01380046FCD17047EFF3108072B6704780F31088704700BF014B1868704700BF85
:402780002084FF1F0E4B70B51E460E4C0025E41AA410A54204D056F8253098470135F8E701F036FC084B094C1E46E41AA4100025A54204D056F8253098470135F8E770BD6D
:4027C0001C4000001C4000001C4000002440000010B5431E0A44914204D011F8014B03F8014FF8E710BD03460244934202D003F8011BFAE7704700000FB40A4B13B51C68B1
:4028000024B1A36913B9204600F022FA05AB049AA1682046019300F0D7FB02B0BDE8104004B070472084FF1F70B50E46054618B183690BB900F00CFAAB69AC6813B92846FD
:4028400000F006FA224B9C4201D16C6808E0214B9C4201D1AC6803E01F4B9C4208BFEC68A3891B0701D523693BB92146284600F091F810B14FF0FF3070BD013EA36816F873
:40288000011F013BA36091B1002B04DAA269934206DB0A2904D023685A1C22601970EDE72246284600F022F80130E7D1E2E7002B08DA22460A21284600F018F80130D9D04C
:4028C0000A2070BD23680A205A1C2260187070BD7C3F00009C3F0000BC3F0000024B01461868FFF7A1BF00BF2084FF1FF8B50F461446064618B183690BB900F0A9F9224B83
:402900009C4201D1746808E0204B9C4201D1B46803E01F4B9C4208BFF468A369A360A3891A0709D523693BB123682069FDB2181A636998420FDB08E02146304600F02AF890
:402940000028F1D04FF0FF30F8BD2146304600F015F90028F6D1A368013BA36023685A1C22601F706269431C934204D0A389DB0707D50A2D05D12146304600F0FFF800286F
:40298000E0D12846F8BD00BF7C3F00009C3F0000BC3F0000324B70B51D6806460C4625B1AB6913B9284600F053F92E4B9C4201D16C6808E02C4B9C4201D1AC6803E02B4B55
:4029C0009C4208BFEC68B4F90C309AB215071DD4D00602D4092232603AE0510712D5616B41B104F14403994202D0304600F01AFA00236363A38923F02403A3810023636060
:402A000023692360A38943F00803A38123694BB9A38903F42073B3F5007F03D02146304600F0C4F9A28912F0010305D00023A36063695B42A36103E0920758BF6369A36034
:402A400023695BB9B4F90C3003F0800080B230B143F04003A3814FF0FF3070BD002070BD2084FF1F7C3F00009C3F0000BC3F00008A892DE9F041054610070C4659D44B6884
:402A8000002B02DC0B6C002B17DDE66AAEB102F48052002392B22F682B600AB1606D15E0216A01232846B047411C0FD12B686BB11D2B01D0162B03D12F600020BDE8F08107
:402AC000A38943F04003A381BDE8F081A3895A0705D56368C01A636B0BB1236CC01A00230246E66A216A2846B047431CA38906D129681D2939D8204ACA40D60735D5002289
:402B000062602269D904226004D5421C01D12B6803B96065616B2F600029CED004F14403994202D0284600F07DF900206063BDE8F0810F69002FC0D093070E680CBF4B692E
:402B40000023C7EB06080F608B6002E00744C0EB0808B8F1000FB0DD43463A46216A2846A66AB0470028F1DCA38943F04003A3814FF0FF30BDE8F0810100402038B50B69E1
:402B800005460C46DBB118B183690BB900F060F80C4B9C4201D16C6808E00B4B9C4201D1AC6803E0094B9C4208BFEC68B4F90C302BB121462846BDE83840FFF759BF002039
:402BC00038BD00BF7C3F00009C3F0000BC3F0000014900F0A9B800BF7D2B000010B50446002303604360836081814366C281036143618361194608225C30FFF7F4FD054B4D
:402C000024626362044BA362044BE362044B236310BD00BF593500007B350000B3350000D735000070B568234D1E5D430E4605F1740100F043F9044640B1002180E8420022
:402C40000C30A06005F16802FFF7CDFD204670BD836910B5044633BB8364C3640365124B124A1B688262984204BF0123836100F01FF86060204600F01BF8A060204600F0BB
:402C800017F80022E06004216068FFF7A7FF01220921A068FFF7A2FF02221221E068FFF79DFF0123A36110BD783F0000D12B0000F8B51C4B07461E68B36913B93046FFF71A
:402CC000C7FF4836B4687368013B04D4B4F90C507DB16834F8E733680BB13668F2E704213846FFF79FFF30600028F6D10C233B60F8BD4FF6FF73E3810123A381656625601D
:402D0000A560656025616561A5610822294604F15C00FFF768FD6563A563A564E5642046F8BD00BF783F00002DE9F8438046894600F14804002694B1A5686768013F0CD4F5
:402D4000AB89012B07D9B5F90E30013303D029464046C84706436835F0E72468EBE73046BDE8F88370B50E46B1F90E1090B0002914461D4606DA00232B60B3891A060ED537
:402D800040230EE001AA00F04DFC0028F3DB029A02F47042A2F500535A425A412A604FF480630020236010B070BD00008B8973B59E0705460C4610D401AB6A46FFF7D2FFBE
:402DC00000990646284600F079F868B9B4F90C309A0522D443F00203A38104F14703236023610123636118E00D4BAB62A389206043F08003A381009B20616361019B4BB19B
:402E0000B4F90E10284600F01FFC18B1A38943F00103A381A0893043A08102B070BD00BFD12B000038B50546002944D051F8043C0C1F002BB8BFE41800F036FC1E4A1368DB
:402E4000114613B96360146030E0A3420DD92268A018834201BF18685B681218226063600C6023E0A24203D813465A68002AF9D118681918A1420BD12168014458188242F5
:402E8000196013D110685268014419605A600DE002D90C232B6009E021686018824201BF106852680918216062605C602846BDE8384000F0FABB38BD0486FF1F70B5CD1CEE
:402EC00025F0030508350C2D38BF0C25002D064601DBA94202D90C23336046E000F0E4FB234B1C681A462146A1B10B685B1B0ED40B2B03D90B60CC18CD501EE08C420BBF5B
:402F000063684B681360636018BF0C4615E00C464968E9E7174C23681BB9304600F00CFB20602946304600F007FB431C18D0C41C24F00304A0420DD12560304600F0B5FBC9
:402F400004F10B00231D20F00700C31A0ED05A42E25070BD211A304600F0EEFA0130EBD10C233360304600F0A0FB002070BD00BF0486FF1F0086FF1F936810B4013B002B8D
:402F8000936008DA9469A34202DBCBB20A2B02D110BCFFF7ABBC1368581C10601970C8B210BC7047F8B506460F461446D518AC4208D03A4614F8011B3046FFF7DDFF431C40
:402FC000F5D100E00020F8BD2DE9F04F9DB00C4617460393064618B183690BB9FFF738FE7F4B9C4201D1746808E07E4B9C4201D1B46803E07C4B9C4208BFF468A3891807B5
:403000000CD5236953B10023099320238DF8293030238DF82A30DFF8D4B144E021463046FFF7B8FC0028EED04FF0FF30D5E0039A111D12680391002A80F28C80524243F0B5
:4030400002000792049098F800302E2B00F08480032298F80010654800F018FB48B14023CBEB000003FA00F0049B08F101081843049098F8001006225D4808F101078DF81D
:40308000281000F003FB002800F09580594B002B40F08880039B073323F0070308330393099B53440993B846454615F8013B1BB9B8EB07090FD003E0252BF9D0A846F3E71D
:4030C0004B463A4621463046FFF76CFF01307FD0099B4B44099398F80030002B78D000234FF0FF3204930793059206938DF853301A930127052229783F4800F0C7FA05F138
:403100000108049B38B13C4A4546801A07FA00F018430490EEE7D90644BF20228DF853201A0744BF2B228DF853202A782A2A3FF47EAF079A00210A20A84698F800300135F3
:40314000303B092B03D800FB02320121F4E700293FF479AF079276E798F801302A2B0BD1039B08F102081A1D1B680392002BB8BF4FF0FF3305936BE700231946059308F13D
:4031800001000A25804698F800200130303A092A03D805FB01210123F4E7002B3FF458AF059155E703AB00932246144B04A93046AFF3008007E003AB009322460F4B04A984
:4031C000304600F093F8B0F1FF3F82467FF468AFA3895B063FF528AF09981DB0BDE8F08F7C3F00009C3F0000BC3F0000E23F0000E63F000000000000DC3F0000A52F0000BD
:403200002DE9F04791461F460A698B6806469342B8BF1346C9F8003091F843200C46DDF8208012B10133C9F800302368990642BFD9F800300233C9F80030256815F0060533
:4032400010D104F1190A07E00123524639463046C04701301AD00135E368D9F800209B1A9D42F1DB94F843302268003318BF012392060FD5E118302081F843005A1C94F88F
:4032800045102244023382F8431003E04FF0FF30BDE8F08704F1430239463046C0470130F4D02268D9F80050E36802F00602042A08BF5D1B2269A3680CBF25EAE57500256D
:4032C0009342C4BF9B1AED184FF000091A344D4509D00123224639463046C0470130D5D009F10109F3E70020BDE8F0872DE9F04317460A7E85B06E2A984606460C460C9B25
:4033000001F1430E00F0AE8011D8632A22D009D8002A00F0BB80582A40F0CA8081F84520834955E0642A1ED0692A1CD0C0E0732A00F0B08009D86F2A2ED0702A40F0B880E1
:403340000A6842F020020A603EE0752A24D0782A3AD0ADE01A6801F14205111D1960136884F84230A8E021681A6811F0800F02D0111D196008E011F0400F02F10401196023
:4033800002D0B2F9003000E01368002B3CDA2D225B4284F8432037E021681A6811F0800F02D0111D196007E011F0400F02F10401196001D0138800E01368227E5C496F2A81
:4033C00014BF0A2208221BE078225A4984F845202268186812F0800F00F104051D6003D1550601D5038800E00368D00744BF42F0200222601BB9226822F0200222601022A8
:40340000002084F8430001E049490A226568002DA56008DB206820F0040020602BB9002D7DD175460CE0002B79D07546B3FBF2F002FB1033CB5C05F8013D03460028F5D172
:40344000082A0BD12368DA0708D5236962689A42DEBF302305F8013C05F1FF35C5EB0E0323612EE008681A6810F0800F496903D0101D1860136808E010F0400F02F10400C8
:403480001860136801D0198000E0196000232361754616E01A68111D1960156800216268284600F0F3F808B1401B6060636804E004F1420584F8422001232361002384F840
:4034C0004330CDF800803B4603AA21463046FFF797FE013002D14FF0FF3026E023692A4639463046C0470130F5D023689B0710D5002504F1190907E001234A46394630463A
:40350000C0470130E7D00135E368039A9B1A9D42F2DBE068039B9842B8BF184605E00B7804F1420584F842308AE705B0BDE8F083ED3F0000FE3F000038B5064C00230546A2
:4035400008462360FEF74CFE431C02D1236803B12B6038BD0886FF1F10B50C46B1F90E1000F0A4F80028ABBF636DA3891B1823F48053ACBF6365A38110BD2DE9F0411F46B8
:403580008B890546DB050C46164605D502230022B1F90E1000F068F8A389324623F48053A381B4F90E103B462846BDE8F04100F017B810B50C46B1F90E1000F055F8431C69
:4035C000A38915BF606523F4805343F48053A38118BFA38110BDB1F90E1000F013B8000038B5074C054608461146002222601A46FEF7B0FC431C02D1236803B12B6038BDDD
:403600000886FF1F38B5064C002305460846236000F05EF8431C02D1236803B12B6038BD0886FF1F38B5074C0023054608461146236000F055F8431C02D1236803B12B606E
:4036400038BD00BF0886FF1F38B5064C002305460846236000F04CF8431C02D1236803B12B6038BD0886FF1F38B5074C054608461146002222601A4600F042F8431C02D10B
:40368000236803B12B6038BD0886FF1F10B5C9B202449042034605D01C7801308C42F8D1184610BD002010BD7047704738B5074C054608461146002222601A4600F028F803
:4036C000431C02D1236803B12B6038BD0886FF1F024B58221A604FF0FF3070470886FF1F024B58221A604FF0FF3070470886FF1F024B58221A600020704700BF0886FF1F86
:40370000024B58221A604FF0FF3070470886FF1F024B58221A604FF0FF3070470886FF1F000000004661696C656420746F2073657420776C6F636B0D000000005350492058
:403740006661696C7572650D00000000627574746F6E2070757368206465746563746564202D2073746174652025750D0A000000536574207374617274207374617465203C
:403780002D20696E642D6F6E2C206C6564312046554C4C2C206C656432204F46462E206C656433204F46460D000000005365742073746174652032202D206C65643120460E
:4037C000554C4C2C206C6564322046554C4C2E206C656433204F46460D0000005365742073746174652033202D206C6564312046554C4C2C206C6564322046554C4C2E20DE
:403800006C6564332046554C4C0D00005365742073746174652034202D204359434C4520414C4C2073616D652070686173650D005365742073746174652035202D2043595A
:40384000434C4520414C4C20646966666572656E742070686173650D000000005365742073746174652036202D204C494D4220484F4D45202D2053657420616C6C206368EC
:40388000616E6E656C73204F464620616E642073746F7020706F6C6C696E670D00000000626F6172645F6C6564207374617465206368616E67656420746F20464153540D0C
:4038C00000000000626F6172645F6C6564207374617465206368616E67656420746F20534C4F570D00000000000000000100000002000000883A0000B83A0000E83A0000B3
:4039000055736572204F50454E2068616E646C657220666F72206C65642025640D0A0000557365722053484F52542068616E646C657220666F72206C65642025640D0A0053
:403940007365745F6C65645F73746174653A20696E76616C6964204C45440D007365745F6C65645F73746174653A204C6564206D61726B6564206661756C7479202D2062BD
:4039800061696C696E67206F75740D004C4544202564206661756C7479202D20736B697070696E672068616E646C696E670D0A004661696C656420746F20736574206272E5
:4039C000696768746E6573730D0000004C454420256420696E6974206661696C65640D0A00000000436F756C64206E6F742072656769737465722053484F52542065727261
:403A00006F722068616E646C657220666F72204C45442025642C206572726F722025640D0A000000436F756C64206E6F74207265676973746572204F50454E206572726F55
:403A4000722068616E646C657220666F72204C45442025642C206572726F722025640D0A000000004C45442025643A204661696C656420746F20736574206272696768746F
:403A80006E6573730A0000004C454431202D207468697320636F756C6420626520696E666F726D6174696F6E20666F722068616E646C6572000000004C454432202D2074E7
:403AC00068697320636F756C6420626520696E666F726D6174696F6E20666F722068616E646C6572000000004C454433202D207468697320636F756C6420626520696E6691
:403B00006F726D6174696F6E20666F722068616E646C657200000000535049206461746120777269746520616E642072656164206D69736D6174636821203078257820217A
:403B40003D20307825780D0A000000004661696C656420746F20726561642053504920666F72206461746120766572696669636174696F6E25640D0A00000000535049208C
:403B800072656164204641494C45442025640D0A000000005056494E5F55564C4F0D000055564C4F0D0000006C65645F69735F656E61626C656400006C65645F6661756CCC
:403BC000745F63616E63656C000000006C65645F6661756C740000006C65645F69735F6661756C74790000006C65645F736574006C65645F7365745F6272696768746E6506
:403C0000737300006C65645F64696D6D5F73657400000000010204001020400005070900040608000B0D0F000A0C0E00190000001A0000001B00000021150000E114000056
:403C4000A11400006114000025733A20426164204C45442049440D0A000000004C4544202564204F43500D0A000000004C45445F5357202564204F43500D0A004C4544203C
:403C80002564204F50454E0D0A0000004C45442025642053484F52540D0A000025733A20496E76616C6964206272696768746E6573732030782568780D0A00005772697431
:403CC000696E67207265672030782578204641494C4544210D0A000057726974696E67206C6F77207265672030782578204641494C45442E20496620574C4F434B20776153
:403D000073207365742074686973206D6179206D6573732D75702065766572797468696E672E0D0A0000000057652073686F756C642070726F7061626C79206A75737420D7
:403D40006B6565702072652D747279696E672E20446F722064656D6F207765206A75737420676976652D75702028666F72206E6F77292E0D000000004953455420636F6DEB
:403D80007075746174696F6E204F766572666C6F770D00004953455420636F6D7075746174696F6E204F766572666C6F77202830782578290D0A00004E4F54453A20436F83
:403DC0006D707574656420495345543D257820666F7220496C65643D2575206D410D0A004F4E00004F4646004661696C656420746F207265616420696E697469616C204C52
:403E00004544207374617475730D00004C454420257520696E697469616C207374617475732025730D0A00004661696C656420746F207265616420696E697469616C204C82
:403E40004544206272696768746E6573730D00004661696C656420746F20736574204D41582063757272656E7420746F202575206D410D0A000000004661696C65642074FB
:403E80006F20656E61626C65204C45442025642064696D6D696E670D0A0000004C4544206572726F72206368616E6E656C20256420627574204C4544206E6F74207965744E
:403EC00020696E697469616C697A65640D0A0000427574746F6E20495251202D206465626F756E63650D0000080100024750494F20696E697420646F6E650D0053504920C1
:403F0000696E697420646F6E650D00004C45442070696E20636F6E666967757265640D0044454D4F20416C6976650D00004F0040240040510040300000000140001000140F
:403F40000140000800400140000A004C01400002005001402000000010450040D8080048080018450040E0080048080060520040E808004806004300C083FF1F00000000BF
:403F80000000000000000000000000000000000000000000000000000000000000000000000000000000000000000000000000000000000000000000000000000000000001
:403FC00000000000000000000000000000000000000000000000000000000000232D302B2000686C4C006566674546470030313233343536373839414243444546003031CF
:4040000032333435363738396162636465660000F8B500BFF8BC08BC9E4670474D00000069220000F8B500BFF8BC08BC9E4670472900000048400000C880FF1F600300002F
:40404000E80100000000000000000000FFFFFFFF00000000000000000001000015000000000000000000000000000000140000001D0000000200000063500040C6510040C8
:404080000300000000000000000000000200000018500040365100400000000000000000000000000200000019500040365100400100000000000000000000000200000017
:4040C0001A50004036510040020000000000000000000000020000001B50004036510040030000000000000000000000010001001C5000403651004004000000010000005C
:4041000000000000010001001D50004036510040050000000200000000000000010001001E5000403651004006000000030000000000000002000000115000402651004028
:404140000100000000000000000000000200000012500040265100400200000000000000000000000200000013500040265100400300000000000000000000000200000080
:4041800014500040265100400400000000000000000000000200000015500040265100400500000000000000000000000200000016500040265100400600000000000000D8
:4041C00000000000020000001750004026510040070000000000000000000000020000000D50004016510040050000000000000000000000020000000F50004016510040C5
:40420000070000000000000000000000000000000000000000000000000000000000000000000000020000001050004026510040000000000000000000000000020000001C
:4042400005500040065100400500000000000000000000000200000006500040065100400600000000000000000000000200000007500040065100400700000000000000A1
:4042800000000000020000000A500040165100400200000000000000000000000200000078500040F65100400000000000000000000000000200000079500040F651004096
:4042C000010000000000000000000000020000007D500040F6510040050000000000000000000000020000000B5000401651004003000000000000000000000002000000D9
:404300000C50004016510040040000000000000000000000020000001F500040365100400700000000000000000000001086FF1F480000000000A08C4019010000A24A0445
:40434000000000007C3F00009C3F0000BC3F000000000000000000000000000000000000763F000000000000000000000000000000000000000000000000000000000000F7
:404380000000000000000000000000000000000000000000000000000000000000000000C083FF1F000000000000000000000000000000000000000000000000000000009C
:4043C00000000000000000000000000000000000000000000000000000000000000000000000000000000000000000000000000000000000000000000000000000000000BD
:40440000000000000000000000000000000000000000000000000000000000000000000000000000000000000000000000000000000000000000000000000000000000007C
:40444000000000000000000000000000000000000000000000000000000000000000000000000000000000000000000000000000000000000000000000000000000000003C
:4044800000000000000000000000000000000000000000000000000000000000000000000000000000000000000000000000000000000000000000000000000000000000FC
:020000040003F7
:0200000480007A
:4000000007450040064F0040045200400264004003650040010101402E0201400B030140340401401D0501404A080140320901402B0A0140250B0140340C0140180D0140FF
:40004000340E0140150F01402E1401401015014037160140181701404E18014044190140581A01403B1B014008400140094101401242014008430140024401400A450140D6
:4000800005460140034701400948014007490140094C0140044D01400A500140025101400501060107010A010B010C01630101200A360D2016D21920223609401030112849
:4000C0001C90850D8F0D870D880F890FE2024013410549FF4AFF4BFF4F01501852805A045B045D115F016040624064406540668068806A806C806E80C013C104C9FFCAFFB0
:40010000CBFFCD83CE03CF01D018D201D301D610DA04DB04DD11DF01E040E240E440E540E680E880EA80EC80EE8042604340462047804D4069406A4077C0D05BD210E4020B
:400140004013410449FF4AFF4BFF4D834E034F0150185A045D015F016040624064406540668068806A806C806E808601AE01B001BE01C013C105C5ECC620C80BC9FFCAFFC0
:40018000CBFFCD83CE03CF01D018D401D804DA04DB04DD11DF05E040E240E440E540E680E880EA80EC80EE80062017401E8042604340462047404D444F0156205D045E80FC
:4001C0005F016F027D408302914092409B409E20C020C480D05BD210D6D0DE10E410EC04EE0201010508072109040D0111221308151019401D012140250129072B182D01B3
:40020000333F354039283F0459045F018001825E8442860488778A088C46904698399A069C42A046AA46AC04AE20B070B40FB608B820BA03BE40C024C103C260C405C5DE7F
:40024000C6F0C7CBC83BC9FFCAFFCBFFCC22CEF0CF08D004D409D804DA04DB04DF01E2C0E440E501E610E711E8C0E901EB11EC40ED01EE40EF010102032A09010A06100869
:4002800012021302184019521A04251027282F6A3502360837603D203E063F80404042044308488149245108522A59455A106280821294C096049D1A9E02A280A488A508D1
:4002C000A620A72AB401C00FC20BC40BCAF0CCF0CEF0D007D20CD60FD80801010421050C06020A010C880D010E0312EC15011612180419011A431F012104230224E0250237
:40030000270429022B082F01300F33013410350E36E039203E403F045440580459045B045F0185019101A901B701BF40D904DF010040012809080A441308180219201A4008
:400340002004220823082680291A2B022F08308831403320350238843A023E046140622894409604A708C007C20EC404CA2FCC8ECE4BD80EE410EC04EE024016410449FF1A
:400380004AFF4BFF4F01501852805A045B045D115F016040624064406540668068806A806C806E8086018A038C069A05B407C012C104C9FFCAFFCBFFCD83CE03CF01D018AD
:4003C000D201D301D610D804DA04DB04DD11DF01E040E240E440E540E680E880EA80EC80EE80004403080A04180441204240434047824F206A406B0277C0940496409F42B8
:40040000A120A310A804C007C202D09DD220E402E8044012410449FF4AFF4BFF4D834E034F0150185A045D015F016040624064406540668068806A806C806E808B019F0130
:40044000B701BF40C016C104C5ECC620C80BC9FFCAFFCBFFCD83CE03CF01D018D401D904DA04DB04DD11DF05E040E240E440E540E680E880EA80EC80EE80264037403F2072
:4004800041204240434247424F25552057105E805F056F017F028701CC10CE20D09DD220D6D0DE104056410449FF4AFF4BFF4F01501852805A045B045D115F016040624076
:4004C00064406540668068806A806C806E80C056C104C9FFCAFFCBFFCD83CE03CF01D018D201D301D610DA04DB04DD11DF01E040E240E440E540E680E880EA80EC80EE805D
:400500004240470148084B404C084F406E406F01734097409F01A008AF02D081D23CEA0139023F014056410449FF4AFF4BFF4D834E034F01501859045A045D015F01604025
:40054000624064406540668068806A806C806E809201AA01B601BE40C056C104C5ECC702C813C9FFCAFFCBFFCD83CE03CF01D018D401D804DA04DB04DD11DF05E040E24025
:40058000E440E540E680E880EA80EC80EE800B40100819402502408043014701480849054B404C084F40500859456B0278808902C208C402D081D23CD60BDE08E620007F84
:4005C0000280041F062008C00A080CC00E011080169F1AFF20C02202266028C02A042C902E4036FF3E405602572858045B045F018030820F8454850186088B018C0C8E507F
:40060000905C94119501962298219A1E9C249E109F01A05CA502A850AA0CAC08AF01B040B20FB302B440B630B701BA80BE11BF44C065C102C6CBC70EC81CC9FFCAFFCBFF16
:40064000CEF0CF44D00CD401D804D904DA04DB04DD33DF01E6C0EA40EB0201420310050A0602070409010A160D080E040F801008120213021541171819291A121B481F4087
:40068000224429442A042B01328838243A203B044024422049404A0850105180520458225A8867206C486D436F7776027702920494809602978099029B089D299E029F423A
:4006C000A108A202A408A501A76AAC01C0FDC27FC4FBCA0ACC0ACE06D004D20CD60FD840EE08001C02220503060307640B400C090E10104014101503172C19101C141D4AF4
:400700001F242348242C2611283029032A0C2B042F2530603110330F341F356838023B283F01580459045C335F01805282288313844085318630870E880D8C0D930C941176
:4007400095319662970698329A449C029D2C9E0D9F03A00DA708A80DAC0DB330B470B60FB70FB908BAA0BB80BF04C002C504C9FFCA07CBFFCC40CD20CEF0CF05D008D80420
:40078000D904DA04DC30DD03DF01E040E1A8E240E32000400280032004040502070509810A200E16120813041752184019011B201C041E021F1022092304268027202901ED
:4007C0002A202B012D04328833203501368838203B043F0647204C104D044E105501570186019214972499029A209B57A180A688A701A802A904C0FDC2EDC4D6CA4DCCDE11
:40080000CEC6D020E402EA013384368037023A808701CCF0CE10E2402F8086019B019E809F06A680A780CA80E44022805B01638083408E1096229B019E809F04A680AA1038
:40084000AF02C810D640D840E220EC20EE401A221E10661096329E809F04C670D8807220DC01134053015F0166088608AA20C402D401D601D8018F019701AB01AF40E40858
:400880009040B440E802661069046C2088208A109E909F04D880DAC02A809E80AB04AD04CA10EA80EE400C401720604090409C40AC40C201C401D80274048404AB20DE04B2
:4008C0000003021408020A020C010E03100B12141A021C0900FF0103010101010101010101010101000000009080000040000000E000000000000000940068809400A0003A
:40090000000000002300000000000000FC03030040000000FF000000380000008F7070000000000000000000000000000000000000000000000000000000000000000000AC
:400940000000000000000000000000000000000000000000000000000000000000000000000000000000000000000000000000000000000000000000000000000000000077
:400980000000000000000000000000000000000000000000000000000000000000000000000000000000000000000000000000000000000000000000000000000000000037
:4009C00000000000000000000000000000000000000000000000000000000000000000000000000000000000000000000000000000000000000000000000000000000000F7
:400A000000000000000000000000000000000000000000000000000000000000000000000000000000000000000000000000000000000000000000000000000000000000B6
:0200000490006A
:0400000000004005B7
:0200000490105A
:04000000BC90ACAF55
:0200000490303A
:020000005F2679
:0200000490402A
:4000000000000000000000000000000000000000000000000000000000000000000000000000000000000000000000000000000000000000000000000000000000000000C0
:400040000000000000000000000000000000000000000000000000000000000000000000000000000000000000000000000000000000000000000000000000000000000080
:400080000000000000000000000000000000000000000000000000000000000000000000000000000000000000000000000000000000000000000000000000000000000040
:4000C0000000000000000000000000000000000000000000000000000000000000000000000000000000000000000000000000000000000000000000000000000000000000
:0200000490501A
:0C00000000012E16106900012E316F8FD8
:00000001FF