:400000000080002011000000291C0000291C000008B5044B1A6803F53F5302331A6001F023FE00BFFA46004010B5054C237833B9044B13B10448AFF300800123237010BDCB
:400040002884FF1F0000000008320000084B10B51BB108490848AFF300800848036803B910BD074B002BFBD0BDE81040184700BF000000002C84FF1F08320000C880FF1FC8
:400080000000000008B501221146002000F00CFD0A2002F009F808BD00B583B080221146002000F001FD10B1094802F08BF90DF10701002000F0B8FC18B99DF90730002B04
:4000C00002DB044802F07EF903B05DF804FB00BF0C3200002432000010B51C4A137803F0F10343F002031370194C237803F0F10343F00C032370237843F0010323704FF458
:400100007A7001F021FC237803F0FE032370012001F0CAFF237843F001032370FFF7B2FFC82001F0C1FF237803F0FE032370012001F0BAFF237843F001032370FFF7ACFF32
:4001400001F08EF900F0D8F9002010BD0F5000400D50004002680132054B83FB0213A3EBE27303EB43035900531A0360704700BFABAAAA2A08B5094802F024F9002201215D
:40018000104600F05FFA00220121084600F05AFA00221146022000F055FA08BD3432000008B5094802F00EF900220121104600F049FA00220121084600F044FA00220121ED
:4001C000022000F03FFA08BD6432000008B5094802F0F8F800220221104600F033FA00220221012000F02EFA00220221084600F029FA08BD9432000008B5094802F0E2F828
:4002000000220221104600F01DFA30220221012000F018FA60220221084600F013FA08BDB832000008B50A4802F0CCF800221146104600F007FA00221146012000F002FADA
:4002400000221146022000F0FDF900F03DF908BDE432000008B50A4802F0B4F800F04CF900220121104600F0EDF900221146012000F0E8F900221146022000F0E3F908BD13
:400280002833000008B5FFF727FF18B900F0D0FA002008BD08BD00BF30B583B000F028FC00F032F93A4B1B68052B42D000F042FA0DF1070000F0B2FCB0B30023ADF800305B
:4002C0008DF80230ADF804308DF806300321684600F08EF99DF8070000F0B2FC032101A800F098F99DF800309DF801209DF8025013431D439DF804409DF805309DF806206C
:40030000234342EA030414F0010F14D115F0010F01D000F0D9F814F0020F0CD115F0020F09D000F0D1F806E000F0CEF800F0E4F801E000F0D9F801F0B5F8E8B1144C2046E3
:40034000FFF708FF2368052B20D8DFE803F00306090C0F12FFF77EFF18E0FFF70BFF15E0FFF71EFF12E0FFF731FF0FE0FFF744FF0CE0FFF757FF09E0054B1B68B3F1FF3F4B
:4003800004D1FFF767FF0022014B1A6003B030BDCC80FF1F98B108B541B10378052B0DD004230370064802F00DF808BD0378032B04D002230370034802F004F808BD70472C
:4003C000643300008833000000B583B08DF8040001238DF8053000238DF8063009B1022300E001238DF8073001A801F027F903B05DF804FB08B5417AC068FFF7E5FF08BDDF
:4004000008B500220270FFF7F5FF08BD08B5417A81F00101C068FFF7D7FF08BD08B501230370FFF7F3FF08BD68B110B50446037A13B1FFF7DFFF01E0FFF7E8FF237A83F00C
:400440000103237210BD704710B338B503460278023A032A1BD8DFE802F00402080C0D4D08E003220270002504E005220270002500E0094D1C46586800F068FB0DB18542ED
:4004800005D200F04BFB60602046FFF7CDFF38BD704700BF40420F00A086010008B501460148FFF777FF08BDD080FF1F08B5054B1B780BB1184608BD01460248FFF76AFFC9
:4004C000002008BDD080FF1F08B50248FFF798FF08BD00BFD080FF1F08B50248FFF79EFF08BD00BFD080FF1F08B50248FFF788FF08BD00BFE080FF1F08B50248FFF78EFF87
:4005000008BD00BFE080FF1F10B5044C2046FFF79BFF04F11000FFF797FF10BDD080FF1F02280BDC08B5074B03EB0010C06838B1836D9847002804DA002008BD0020704722
:40054000002008BD4484FF1F10B50446C178124B03EB81031A6B114B83FB0230D317C3EB203342F2107000FB132313B90C4801F0B7FEE278084B03EB82031A6B01321A631D
:400580000120FFF793FF012804D0052802D00120FFF784FF10BD00BF4484FF1FAD8BDB68C433000010B50446C1780E4B03EB8103DA6B0D4B83FB0230D317C3EB203342F299
:4005C000107000FB132313B9084801F089FEE278044B03EB8203DA6B0132DA63FFF77CFF10BD00BF4484FF1FAD8BDB68E433000070B506460D46002408E02046FFF790FFB5
:40060000002806DBA54200DD30550134022CF4DD002070BD70B506460D4600240BE0084B03EB0413D86828B1036D9847C0B2AC4200DA30550134022CF1DD002070BD00BF58
:400640004484FF1F70B5022805DC0546364B03EB0013DE682EB9354801F0B4FE6FF0150070BD2EB9324801F0ADFE6FF0150070BD2D4B03EB0013187A00F00F0022F00F02DE
:4006800002431A7202F00F038B4248D002F0F002254B03EB05130A431A7201290FD011B1022919D03DE0736930469847B36A0021304698472D0100221B4B5A5170BD336963
:4006C00030469847B36A40F2FF31304698472D010022154B5A5170BD02F0F00433693046984700F01BFA104B2D015A195851012353602F2C06D95F2C06D98F2C07D84FF470
:40070000007106E0012104E04FF4807101E04FF44071B36A01F001013046984770BD002070BD6FF0150070BD4484FF1F04340000203400002DE9F84300246EE0394B03EB2C
:400740000413DD68002D67D0364B03EB04131B7A03F0F00603F00F03022B5DD12301314AD05800F0F3F940F6B733984254D92D4901EB04114A68013203F5800303F24E432E
:40078000A2FB0389C9EB020309EB53035B0AC3EB8323D31A4B602F2E0BD8234EA3FB0667D91B07EB5101490AC1EB8121591A89B22BE05F2E0CD8FF331B4EA3FB0667D91B63
:4007C00007EB5101490AC1EB8121591A89B21CE08F2E0DD803F2FF13134EA3FB0667D91B07EB5101490AC1EB8121591A89B20CE003F2FF230C4EA3FB0667D91B07EB51012E
:40080000490AC1EB8121591A89B2AB6A2846984710B1064801F0D6FD0134022C8EDDBDE8F88300BF4484FF1F051040003C34000070B584B0244B93E8070004AB03E90700F0
:4008400030220021214801F042FD002536E004AB03EB850353F80C6C4FF47A71F0B200F073FD0446194B03EB0513D86020B93146174801F035FD20E0134B03EB8503DA6845
:40088000144900F049FD024618B1E178124801F027FD00221149204600F04AFD024618B1E1780F4801F01CFDA36A00212046984718B1E1780B4801F013FD0135022DC6DDF7
:4008C000002004B070BD00BFAC3300004484FF1F58340000A50500007034000049050000B0340000F034000030B4002510E0545D6140002409E011F0800F03D080EA4101DC
:40090000C9B201E04900C9B20134072CF3D901359D42ECD3084630BC704700BF70B582B006460D460B460246002140F23110FFF7DBFF8DF80700154A137803F0FE031370FF
:40094000ADB201F07BFA002404E0305D01F056FA0134A4B2AC42F8D3002406E00DF10703185D01F04BFA0134A4B2002CF6D001F039FA10F0010FFAD001F052FA034A13784B
:4009800043F001031370002002B070BD0D50004010B582B08DF80400FF238DF80530022301AA002140F23110FFF79EFF8DF80600074C237803F0FE032370032101A800F0D1
:4009C00079FF237843F00103237002B010BD00BF0D50004091B108B50B4602460021084600F080FF01F0FEF910F0010FFAD0054A137843F001031370002008BD6FF015001A
:400A0000704700BF0D50004000B583B060F07F008DF804008DF80510022101A8FFF77EFF03B05DF804FB00BF10B582B00C46FFF7AFFF78B9642001F04DFB074A137803F01A
:400A4000FE031370032101A8FFF7C4FF9DF805302370FFE702B010BD0D500040F0B583B007460E461546FFF7CFFF0446A5B10DF107013846FFF7D8FF014618B1084801F033
:400A80002FFC09E09DF80720964205D03146054801F026FC6FF01504204603B0F0BD00BFA4350000D4350000F0B583B007460E4614460DF10701FFF7B7FF30B1054601460B
:400AC0000A4801F00DFC28460DE09DF8073023EA0601344021438B4204D001223846FFF7BDFF00E0002003B0F0BD00BF0836000000B583B001F030FB0190019B064A12684B
:400B0000934203D904494A6801324A60024A136003B05DF804FB00BF8C84FF1F08B501F01BFB094B1B68984203D9074A536801335360054B18605B68C0F1FF1000F57F4032
:400B400040EA036008BD00BF8C84FF1F10B50446FFF7E4FFA04201D3001B01E0001B01382430024BA3FB0030000910BD398EE33808B5094B1A68094BA3FB02139B094FF4A0
:400B80007A7101FB132313B9054801F01BFC024A13680133136008BD9484FF1FD34D62102036000008B50B4B5A680B4BA3FB02139B094FF47A7101FB132313B9074801F0B8
:400BC00001FC044A5368013353600020FFF76EFC08BD00BF9484FF1FD34D62102C36000008B50B4B9A680B4BA3FB02139B094FF47A7101FB132313B9074801F0E3FB044A80
:400C00009368013393600020FFF750FC08BD00BF9484FF1FD34D62103836000010B5044601461820FFF700FF28B9237803F0F703237013B910BD012010BD012010BD00BFC3
:400C400030B589B0044620220021684601F03FFB104B0493104B0593104B069314F0070001D000F0AFFB254634F0070310D004240CE045FA04F313F0010F06D008AB03EB34
:400C8000840353F8203C03B198470134072CF0DD09B030BDE10B0000A50B0000710B000070B110B4044609B9186860B1A07868B109B1186868B91960019B1A6000200AE0D9
:400CC0006FF0150070476FF0150004E06FF00A0001E06FF00F0010BC704700BF8089704708B510B1C278022A05D90449044801F0F7FA012008BD407808BD00BF40360000E2
:400D0000E036000008B518B10346C278022A06D90649074801F0E4FA6FF0150008BD007810B100221A7008BD002008BD50360000E036000008B510B1C278022A06D90649A6
:400D4000064801F0CDFA6FF0150008BD003118BF01210170002008BD64360000E036000008B510B1C278022A06D90449044801F0B7FA6FF0150008BD007808BD70360000EA
:400D8000E036000008B5837893B10A4B1A680A4BA3FB02139B094FF47A7101FB13231BB9C178064801F09CFA024A13680133136008BD00BFA084FF1FD34D6210F43600006C
:400DC00008B5837893B10A4B5A680A4BA3FB02139B094FF47A7101FB13231BB9C178064801F07EFA024A53680133536008BD00BFA084FF1FD34D62100437000008B58378D7
:400E000093B10A4B9A680A4BA3FB02139B094FF47A7101FB13231BB9C178064801F060FA024A93680133936008BD00BFA084FF1FD34D62101437000008B5837893B10A4B03
:400E4000DA680A4BA3FB02139B094FF47A7101FB13231BB9C178064801F042FA024AD3680133D36008BD00BFA084FF1FD34D62102437000008B518B10346C278022A06D9E7
:400E80000749084801F02CFA6FF0150008BD09B1427900E0002259791420FFF705FE08BD80360000E036000008B50021FFF7E2FF08BD00BF08B50121FFF7DCFF08BD00BFCE
:400EC00010B518B10446C378022B06D90A490B4801F006FA6FF0150010BD437843B901790A461420FFF7E0FD20B90122627010BD002010BD10BD00BF90360000E036000083
:400F000038B505461A4B984205D91A4801F05AFA40F2FF341CE0184B98420CD84FF4961303FB00F303F1436303F5A023134CA4FB0334240D0CE04FF4966303FB00F303F58A
:400F4000433303F5A0730D4CA4FB0334240DA402B4F5806F05D32146094801F0C1F940F2FF342A462146074801F0BAF9A0B238BD7462585534370000FFCF89616BCA5F6BFC
:400F80005037000074370000934230D02DE9F0411D4614460F46064602F003080122C4F38701FFF75BFD044630B13146144801F097F92046BDE8F081012241463846FFF7BF
:400FC0004DFD0446A8B139460E4801F089F90E4801F0F8F94FF6FF739D420DD00122C5F387013046FFF73AFD2046BDE8F081002070470020BDE8F0810020BDE8F08100BF8D
:401000009C370000B83700000838000010B504460846FFF775FF4FF6FF730246E179A079FFF7B2FF10BD00BF38B520B10D460446C378022B06D91049104801F051F96FF055
:40104000150038BD43789BB1B1F5806F07D30A4609490B4801F044F96FF0150038BD83890A46417A007AFFF78FFF18B9A58138BD002038BD38BD00BF98360000E0360000B6
:401080005838000030B583B0044602A9002301F8013D1420FFF7C8FC10B11C4801F092F922799DF807301A4214BF012300236370E1780BB1164A00E0164A174801F010F9EC
:4010C0000DF10701607AFFF7AFFC054620B1134801F078F9284616E002A911F8013D03F00303A381207AFFF79FFC054620B10B4801F068F9284606E09DF80720A38943EACE
:401100008203A381002003B030BD00BF80380000783800007C380000A4380000C038000010B58AB003463A4A114631F86C0F8978ADF824008DF82610114631F8700F89784B
:40114000ADF820008DF82210114631F8740F8978ADF81C008DF81E10114631F8780F8978ADF818008DF81A10114631F87C0F8978ADF814008DF81610114631F8800F897887
:40118000ADF810008DF8121001AC843207CA84E8070000211970D8780AAA024412F8044C1C7112F8084C5C7112F80C4CDC7112F8104C9C7112F8144C5C7212F8182C1A72F2
:4011C0000AAA02EB800050F8242C9A72114A1A61114A5A61114A9A62114ADA62114A5A62114A1A65114A5A65114A9A65114A1A6219639963196499640F4A9A610F4ADA613A
:4012000001229A701846FFF73DFF0AB010BD00BF40360000C10E0000D912000029100000DD0C00000D100000610D0000350D0000050D0000E10C0000B50E0000A90E000013
:4012400030B58FB0054609AC224B0FCB84E80F002B6B0593AB6B06932B6C0793AB6C08936B6B0193EB6B02936B6C0393EB6C04930DF13701A87AFFF7D7FB10B1FF238DF890
:40128000373000241CE09DF83730234113F0010F15D00EAB03EB840353F8243C3BB10EAA02EB840252F8341C2846984707E00EAB03EB840353F8143C0BB12846984701348A
:4012C000032CE0DD6B6D9DF83710284698470FB030BD00BFD036000010B518B10446C378022B06D90A490B4800F0FAFF6FF0150010BD437843B1002201791420FFF7D4FB5D
:4013000020B90022627010BD002010BD10BD00BF90360000E036000010B582B0034600F1340400943033FFF7BBFC02B010BD00BF10B582B0034600F13C0400943833FFF70D
:40134000AFFC02B010BD00BF02282ED870B50E460446194901F110055C2202FB00F31D440B44D8742846FFF7DBFE00BB5C23124A03FB04235B6B31462846984718B13146FC
:401380000E4800F0ADFF5C230B4A03FB04239B6A2846984768B15C20074B00FB0434E17C074800F09DFF284670BD00207047002070BD284670BD00BFA084FF1FE838000023
:4013C0001039000038B50546002429E045FA04F313F0010F23D05C23134A03FB04239B7C3BB15C2002F1100300FB0430FFF728FF15E00D4BD3F824210C4BA3FB02139B0926
:401400004FF47A7101FB13231BB92146084800F067FF054AD2F824310133C2F824310134022CD3DD38BD00BFA084FF1FD34D62103439000008B50021042000F0D9FD00F0FA
:40144000F3FD10F0010F08D0044B01221A705B681BB9FFF763FB014B586008BDC885FF1F08B50B4800F002FE00211C2000F0C0FD0121042000F0BCFD064A137843F001036E
:401480001370137803F0F10343F00403137008BD351400000A50004008B50121042000F0A7FD08BD10B50D4B1C789B6863B10B4B5868FFF74BFB0A4B984205D9074B0022DB
:4014C0009A605A60FFF7E8FF044B1B7823B1034B01229A6000221A70204610BDC885FF1FA086010008B50D4B1B68984208D301460B4800F0F5FE0B4800F064FF002008BD74
:40150000112808D10146084800F0EAFE054800F059FF002008BD012008BD00BFF080FF1F68390000383400008439000038B504460D46FFF7D7FF18B900232B70162038BDA3
:4015400004EB4402D300114AD35A03F002039BB243B921460E4800F0C3FE0E4800F032FF5F2038BD04EB4404E300084A13445B681B7803F0100303F0FF001BB102232B70A4
:40158000002038BD01232B7038BD00BFF480FF1FCC3900003834000038B504460D46FFF7A1FF00283DD004EB4402D3001F4AD35A03F002039BB243B921461D4800F090FE22
:4015C0001C4800F0FFFE5F2038BD04EB4402D300164A13449B7843B12146174800F080FE144800F0EFFE102038BD012D0DD0022D19D104EB4404E3000C4A13445A68137896
:4016000043F001031370002038BD04EB4404E300064A13445A68137803F0FE031370002038BD162038BD162038BD00BFF480FF1FCC39000038340000F839000010B50446E9
:401640000078FFF74FFF00287ED0217801EB4102D300414AD35A03F002039BB23BB93F4800F03EFE3E4800F0ADFE5F2010BD607801283DD1E078012824D010B102280BD042
:4016800064E001EB4101CB00334A13445A68137803F0F103137010BD2F484B005C18E20002445468227802F0F10242F00C0222701944CB0003445A68137843F001031370B4
:4016C000002010BD24484B005C18E20002445468227802F0F10242F00C0222701944CB0003445A68137803F0FE031370002010BD70BBE378012B0ED0CBB1022B2AD101EB5D
:401700004102D300144A13445A68137843F00103137004240CE001EB4102D3000E4A13445A68137803F0FE031370062400E0022401EB4101CA0008490A445268137803F04F
:40174000F1032343137010BD162010BD162010BD162010BD162010BDF480FF1FCC390000383400000348044B8360044B0360044B43607047D485FF1F3D1600002D150000CC
:401780009915000008B500F04DFD00F0D5FC6FF07F4000F0D9FC012000F0E6FC00F010FD08BD00BF00B583B0044B1868019001A8FFF744FF03B05DF804FB00BF283A00001A
:4017C00010B562B6FFF7DEFF00F0C6FAFFF7CAFF114800F0F7FD00F02DF8104800F0F2FDFFF7E0FF0E4800F0EDFDFEF74BFD0D4B1A6853090C4CA4FB0334E4090B4B03FB5A
:401800001424FEF749FD14B9094800F0DBFD054A136801331360EAE72C3A00003C3A00004C3A0000E085FF1FC55A7C0AA0860100603A000008B51B4A137803F0F10343F0FB
:401840000C031370137803F0FE031370573A137803F0F10343F00C031370137803F0FE0313700132137803F0F10343F002031370023A137803F0F10343F00C0313701378AC
:4018800043F00103137000F02BFB00F01BFB0122054B1A70054800F023FD054800F092FD08BD00BF65500040E485FF1F6C3A00003834000070B506460D4600F0BFFA002489
:4018C00004E0305D00F09AFA0134A4B2A542F8D800F088FA10F0010FFAD000F0A1FA002070BD00BF2DE9F04780460F4691460B449EB20024254623E0BC4204D218F8020078
:4019000000F07CFA02E0002000F078FA0134A4B2B44203D22B1D2246A342EDD800F068FA10F0200F0CD0BD4206D3C7EB050A00F071FA09F80A0001E000F06CFA0135ADB205
:40194000B542E5D3BDE8F08708B5421E44F24F639A420FD84FF4FA6303FB00F0064B0344B3FBF0F080B20138012180B200F0D4FA002008BD5F2008BDFFA14A0438B5012876
:4019800004D10D461446084B1B7833B900F068FC092303604FF0FF3038BDD1B2284600F0F5F9204638BD00BFE585FF1FFEE700BFF0B40022174611E050F82760F3B226F0DA
:4019C000FF0608E001EB420511F812406D78A5550132013BDBB2002BF4D10137272FEBD9F0BC7047064B1B78DBB203F00701054A11701B09013213704422034B1A707047E1
:401A0000CF0100496E5800407658004038B503222B4B1A8018232B4A137005210232118002321370472102321180023213704D2102321180023213700622234B1A70522220
:401A4000A3F580731A70214B1B78DBB2204A13704FF4E3621F4B1A8042F25122023B1A80002419250CE01C4B1B7803F0010343EA440404F003044FF4F07000F0E1FB013D72
:401A80000DB1032CEFD115B90320FFF78FFF134A4FF48073138007231370002310490B7048200231087013700532137002220D4B1A700D4A137843F00F03137038BD00BF86
:401AC0008040004082400040004300400F010049A14600402242004025420040044000400640004001400040A243004008B50A46002100F0ECFB08BD08B500F0DDFB08BDD2
:401B000038B572B66122354B1A70FFF77FFF00240CE0334D630019194A0011462A44084691882858FFF7E2FF0134E4B2062CF0D900240BE02A48A20011194B0003449A8ED0
:401B4000196BD86AFFF7D8FF0134E4B2022CF1D924494FF09040FFF72BFF234A137843F0020313701032137843F0020313701F4C237843F040032370A2F58632513A1378C4
:401B800043F010031370082219491A48FFF7B4FF0A2219491948FFF7AFFF082218491948FFF7AAFF082218491848FFF7A5FF082217491848FFF7A0FF082217491748FFF7C4
:401BC0009BFF174A137843F008031370FFF70AFF0E2221461348FFF78FFF38BD00480040B43A0000A000004803500140A0430040F008004802510040F8080048C0510040B3
:401C000004090048F25100400C0900481251004014090048225100401C0900483251004022430040B043004008B500F019FB03680C2B00D1FEE7FEE708B5094B1A681044C7
:401C4000084BC31AB3F5007F02DC054B186005E000F006FB0C2303604FF0FF32104608BDAC83FF1F1086FF1F08B5104E104D16E029686B68AC68002204E051F8040B43F8F4
:401C8000040B0432A242F8D1E868002203E0002143F8041B04328242F9D11035013E002EE6D100F0E3FAFFF78BFDFEE701000000BC3B000008B5104A104B1A60104A13684C
:401CC00043F40073136000230AE0032B03D80D4A52F8231000E00C490C4A42F8231001332F2BF2D90A4B1A780A4B1A70074A0A4B1A60FFF705FF08BD0004FA050CED00E00B
:401D000014ED00E000000000291C00000080FF1FBC760040C080FF1F08ED00E00622044B1A70472210331A7000224E331A7070472B65004010B500F08BFA0446054A1378F1
:401D400043F01003137000F09FF9204600F084FA10BD00BF9965004008B5054B1B7823B9FFF7DCFF0122024B1A70FFF7E3FF08BDE585FF1F034B1B7813F0040FFAD1024BF9
:401D8000187070476965004049650040084B1B7833B97047305DFFF7EDFF0134E4B203E070B50D4606460024AC42F3D370BD00BFE585FF1F08B500F04BFA094A137843F02F
:401DC00020031370FF3A137843F0100313700132137843F01003137000F03EFA08BD00BF98650040014B1878704700BF69640040014B1878704700BF6A640040034B1B78A0
:401E000013F0040FFAD0024B187070476964004049640040014B1878704700BF5964004001E0044B1B78044B1B7813F0200FF8D1704700BF596400406A64004008B500F01F
:401E400007FA064B1A7842F001021A701A7802F0FE021A7000F000FA08BD00BF9964004008B501E00A4B1B780A4B1B7813F0200FF8D100F0EDF9084B1A7842F001021A7023
:401E80001A7802F0FE021A7000F0E6F908BD00BF596400406A6400409964004008B50F22064B1A70FFF7DCFFFFF79CFFFFF7A0FF0023034A13700132137008BD886500401E
:401EC0008964004008B5054B1B7823B9FFF7E6FF0122024B1A70FFF76DFF08BDE785FF1F054A137843F0010313701032137843F001031370704700BFA2430040014B188811
:401F000080B2704780400040024B187800F00700704700BF8240004070B505460E46FFF7F3FF0446FFF7EAFFA84256D02B4B1B7803F0010294B900B185B938B9284B1D804B
:401F4000284A137803F0BF03137070BD254A137843F040031370224B1D8070BD22B3002321490B7001240F310C7004310B700C390B7803F07F030B701A4B1B7813F0080F9D
:401F800000D08DB9194B18800721013B1970164B1B7813F0010FFAD110490B7803F0FE030B700021104B19700C4B1B7813F0010F0DD00E4B1D800EB1032200E001220A4BF4
:401FC0001A70094B1B7813F0010FFAD170BD044B1D8002490B7813430B7070BDA24300408040004082400040014000400240004000F004039BB213B1CBB2084A137000F039
:4020000008039BB213B1CBB2054A137000F0100080B210B1C9B2034B197070470A4500400B4500400C450040024B1878C0F38200704700BF81450040014B1B689864704779
:4020400008ED00E04001C0B2014B1870704700BF02E400E00422014B1A60704700E100E00422014B1A60704780E100E010B50446FFF7F6FF2046FFF7DFFF0720FFF7E2FF4E
:40208000FFF7E8FF10BD00BF054A137843F0080313701032137843F008031370704700BFA243004001BE704710B5044605E0084B186800F0C5F8A4F50044B4F5004FF6D866
:4020C000034B586800FB04F000F0BAF810BD00BFB083FF1F08B5034B1B7A00FB03F000F0AFF808BDB083FF1F70B504460E46074B1D680F2802D90020FFF7D4FF04F00F048D
:4021000055F8240045F8246070BD00BF08ED00E0024A136843F002031360704710E000E008B5FFF7F5FF034A136843F00103136008BD00BF10E000E0024A136823F0020367
:402140001360704710E000E020F07F40014B1860704700BF14E000E0024B186820F07F40704700BF18E000E0012805D1054A136843F0040313607047024A136823F0040390
:402180001360704710E000E0024B1868C0F30040704700BF10E000E010B5FFF7F5FF01280BD107E0054B03EB84035B6803B19847013400E00024042CF4D910BDE885FF1FDB
:4021C0000022014B1A60704718E000E008B5002305E00F4A02EB8302002151600133042BF7D90C490F20FFF77FFF0120FFF7BCFF094BDB680948A0FB03308009FFF7A4FF31
:40220000FFF7DEFF4FF40042054B1A6008BD00BFE885FF1F99210000B083FF1FD34D621000E100E008B5054B9B6923B9FFF7CEFF0122024B9A61FFF773FF08BDE885FF1F3C
:402240000230800803D000BF01380046FCD17047EFF3108072B6704780F31088704700BF014B1868704700BF2084FF1F0E4B70B51E460E4C0025E41AA410A54204D056F81D
:40228000253098470135F8E701F086FC084B094C1E46E41AA4100025A54204D056F8253098470135F8E770BDA43B0000A43B0000A43B0000AC3B000010B5431E0A44914235
:4022C00004D011F8014B03F8014FF8E710BD03460244934202D003F8011BFAE7704700000FB40A4B13B51C6824B1A36913B9204600F022FA05AB049AA1682046019300F015
:40230000D7FB02B0BDE8104004B070472084FF1F70B50E46054618B183690BB900F00CFAAB69AC6813B9284600F006FA224B9C4201D16C6808E0214B9C4201D1AC6803E086
:402340001F4B9C4208BFEC68A3891B0701D523693BB92146284600F091F810B14FF0FF3070BD013EA36816F8011F013BA36091B1002B04DAA269934206DB0A2904D0236857
:402380005A1C22601970EDE72246284600F022F80130E7D1E2E7002B08DA22460A21284600F018F80130D9D00A2070BD23680A205A1C2260187070BD043B0000243B0000F7
:4023C000443B0000024B01461868FFF7A1BF00BF2084FF1FF8B50F461446064618B183690BB900F0A9F9224B9C4201D1746808E0204B9C4201D1B46803E01F4B9C4208BFB6
:40240000F468A369A360A3891A0709D523693BB123682069FDB2181A636998420FDB08E02146304600F02AF80028F1D04FF0FF30F8BD2146304600F015F90028F6D1A36851
:40244000013BA36023685A1C22601F706269431C934204D0A389DB0707D50A2D05D12146304600F0FFF80028E0D12846F8BD00BF043B0000243B0000443B0000324B70B503
:402480001D6806460C4625B1AB6913B9284600F053F92E4B9C4201D16C6808E02C4B9C4201D1AC6803E02B4B9C4208BFEC68B4F90C309AB215071DD4D00602D4092232607C
:4024C0003AE0510712D5616B41B104F14403994202D0304600F01AFA00236363A38923F02403A3810023636023692360A38943F00803A38123694BB9A38903F42073B3F57E
:40250000007F03D02146304600F0C4F9A28912F0010305D00023A36063695B42A36103E0920758BF6369A36023695BB9B4F90C3003F0800080B230B143F04003A3814FF0DC
:40254000FF3070BD002070BD2084FF1F043B0000243B0000443B00008A892DE9F041054610070C4659D44B68002B02DC0B6C002B17DDE66AAEB102F48052002392B22F68D1
:402580002B600AB1606D15E0216A01232846B047411C0FD12B686BB11D2B01D0162B03D12F600020BDE8F081A38943F04003A381BDE8F081A3895A0705D56368C01A636B6A
:4025C0000BB1236CC01A00230246E66A216A2846B047431CA38906D129681D2939D8204ACA40D60735D5002262602269D904226004D5421C01D12B6803B96065616B2F6020
:402600000029CED004F14403994202D0284600F07DF900206063BDE8F0810F69002FC0D093070E680CBF4B690023C7EB06080F608B6002E00744C0EB0808B8F1000FB0DDED
:4026400043463A46216A2846A66AB0470028F1DCA38943F04003A3814FF0FF30BDE8F0810100402038B50B6905460C46DBB118B183690BB900F060F80C4B9C4201D16C688B
:4026800008E00B4B9C4201D1AC6803E0094B9C4208BFEC68B4F90C302BB121462846BDE83840FFF759BF002038BD00BF043B0000243B0000443B0000014900F0A9B800BFD8
:4026C0006526000010B50446002303604360836081814366C281036143618361194608225C30FFF7F4FD054B24626362044BA362044BE362044B236310BD00BF4130000009
:40270000633000009B300000BF30000070B568234D1E5D430E4605F1740100F043F9044640B1002180E842000C30A06005F16802FFF7CDFD204670BD836910B5044633BBC8
:402740008364C3640365124B124A1B688262984204BF0123836100F01FF86060204600F01BF8A060204600F017F80022E06004216068FFF7A7FF01220921A068FFF7A2FFB2
:4027800002221221E068FFF79DFF0123A36110BD003B0000B9260000F8B51C4B07461E68B36913B93046FFF7C7FF4836B4687368013B04D4B4F90C507DB16834F8E7336802
:4027C0000BB13668F2E704213846FFF79FFF30600028F6D10C233B60F8BD4FF6FF73E3810123A38165662560A560656025616561A5610822294604F15C00FFF768FD656395
:40280000A563A564E5642046F8BD00BF003B00002DE9F8438046894600F14804002694B1A5686768013F0CD4AB89012B07D9B5F90E30013303D029464046C8470643683582
:40284000F0E72468EBE73046BDE8F88370B50E46B1F90E1090B0002914461D4606DA00232B60B3891A060ED540230EE001AA00F04DFC0028F3DB029A02F47042A2F5005300
:402880005A425A412A604FF480630020236010B070BD00008B8973B59E0705460C4610D401AB6A46FFF7D2FF00990646284600F079F868B9B4F90C309A0522D443F0020391
:4028C000A38104F14703236023610123636118E00D4BAB62A389206043F08003A381009B20616361019B4BB1B4F90E10284600F01FFC18B1A38943F00103A381A0893043FB
:40290000A08102B070BD00BFB926000038B50546002944D051F8043C0C1F002BB8BFE41800F036FC1E4A1368114613B96360146030E0A3420DD92268A018834201BF1868B1
:402940005B681218226063600C6023E0A24203D813465A68002AF9D118681918A1420BD12168014458188242196013D110685268014419605A600DE002D90C232B6009E004
:4029800021686018824201BF106852680918216062605C602846BDE8384000F0FABB38BD0886FF1F70B5CD1C25F0030508350C2D38BF0C25002D064601DBA94202D90C235C
:4029C000336046E000F0E4FB234B1C681A462146A1B10B685B1B0ED40B2B03D90B60CC18CD501EE08C420BBF63684B681360636018BF0C4615E00C464968E9E7174C2368D2
:402A00001BB9304600F00CFB20602946304600F007FB431C18D0C41C24F00304A0420DD12560304600F0B5FB04F10B00231D20F00700C31A0ED05A42E25070BD211A3046A3
:402A400000F0EEFA0130EBD10C233360304600F0A0FB002070BD00BF0886FF1F0486FF1F936810B4013B002B936008DA9469A34202DBCBB20A2B02D110BCFFF7ABBC13688B
:402A8000581C10601970C8B210BC7047F8B506460F461446D518AC4208D03A4614F8011B3046FFF7DDFF431CF5D100E00020F8BD2DE9F04F9DB00C4617460393064618B18B
:402AC00083690BB9FFF738FE7F4B9C4201D1746808E07E4B9C4201D1B46803E07C4B9C4208BFF468A38918070CD5236953B10023099320238DF8293030238DF82A30DFF8D7
:402B0000D4B144E021463046FFF7B8FC0028EED04FF0FF30D5E0039A111D12680391002A80F28C80524243F002000792049098F800302E2B00F08480032298F80010654866
:402B400000F018FB48B14023CBEB000003FA00F0049B08F101081843049098F8001006225D4808F101078DF8281000F003FB002800F09580594B002B40F08880039B07339E
:402B800023F0070308330393099B53440993B846454615F8013B1BB9B8EB07090FD003E0252BF9D0A846F3E74B463A4621463046FFF76CFF01307FD0099B4B44099398F826
:402BC0000030002B78D000234FF0FF3204930793059206938DF853301A930127052229783F4800F0C7FA05F10108049B38B13C4A4546801A07FA00F018430490EEE7D9069B
:402C000044BF20228DF853201A0744BF2B228DF853202A782A2A3FF47EAF079A00210A20A84698F800300135303B092B03D800FB02320121F4E700293FF479AF079276E7A8
:402C400098F801302A2B0BD1039B08F102081A1D1B680392002BB8BF4FF0FF3305936BE700231946059308F101000A25804698F800200130303A092A03D805FB01210123CD
:402C8000F4E7002B3FF458AF059155E703AB00932246144B04A93046AFF3008007E003AB009322460F4B04A9304600F093F8B0F1FF3F82467FF468AFA3895B063FF528AF64
:402CC00009981DB0BDE8F08F043B0000243B0000443B00006A3B00006E3B000000000000643B00008D2A00002DE9F04791461F460A698B6806469342B8BF1346C9F80030B0
:402D000091F843200C46DDF8208012B10133C9F800302368990642BFD9F800300233C9F80030256815F0060510D104F1190A07E00123524639463046C04701301AD0013520
:402D4000E368D9F800209B1A9D42F1DB94F843302268003318BF012392060FD5E118302081F843005A1C94F845102244023382F8431003E04FF0FF30BDE8F08704F1430219
:402D800039463046C0470130F4D02268D9F80050E36802F00602042A08BF5D1B2269A3680CBF25EAE57500259342C4BF9B1AED184FF000091A344D4509D0012322463946B8
:402DC0003046C0470130D5D009F10109F3E70020BDE8F0872DE9F04317460A7E85B06E2A984606460C460C9B01F1430E00F0AE8011D8632A22D009D8002A00F0BB80582AC7
:402E000040F0CA8081F84520834955E0642A1ED0692A1CD0C0E0732A00F0B08009D86F2A2ED0702A40F0B8800A6842F020020A603EE0752A24D0782A3AD0ADE01A6801F1D9
:402E40004205111D1960136884F84230A8E021681A6811F0800F02D0111D196008E011F0400F02F10401196002D0B2F9003000E01368002B3CDA2D225B4284F8432037E08B
:402E800021681A6811F0800F02D0111D196007E011F0400F02F10401196001D0138800E01368227E5C496F2A14BF0A2208221BE078225A4984F845202268186812F0800FD4
:402EC00000F104051D6003D1550601D5038800E00368D00744BF42F0200222601BB9226822F0200222601022002084F8430001E049490A226568002DA56008DB206820F092
:402F0000040020602BB9002D7DD175460CE0002B79D07546B3FBF2F002FB1033CB5C05F8013D03460028F5D1082A0BD12368DA0708D5236962689A42DEBF302305F8013CBC
:402F400005F1FF35C5EB0E0323612EE008681A6810F0800F496903D0101D1860136808E010F0400F02F104001860136801D0198000E0196000232361754616E01A68111DC2
:402F80001960156800216268284600F0F3F808B1401B6060636804E004F1420584F8422001232361002384F84330CDF800803B4603AA21463046FFF797FE013002D14FF072
:402FC000FF3026E023692A4639463046C0470130F5D023689B0710D5002504F1190907E001234A4639463046C0470130E7D00135E368039A9B1A9D42F2DBE068039B9842A2
:40300000B8BF184605E00B7804F1420584F842308AE705B0BDE8F083753B0000863B000038B5064C0023054608462360FEF704FE431C02D1236803B12B6038BD0C86FF1F64
:4030400010B50C46B1F90E1000F0A4F80028ABBF636DA3891B1823F48053ACBF6365A38110BD2DE9F0411F468B890546DB050C46164605D502230022B1F90E1000F068F844
:40308000A389324623F48053A381B4F90E103B462846BDE8F04100F017B810B50C46B1F90E1000F055F8431CA38915BF606523F4805343F48053A38118BFA38110BDB1F945
:4030C0000E1000F013B8000038B5074C054608461146002222601A46FEF750FC431C02D1236803B12B6038BD0C86FF1F38B5064C002305460846236000F05EF8431C02D1EB
:40310000236803B12B6038BD0C86FF1F38B5074C0023054608461146236000F055F8431C02D1236803B12B6038BD00BF0C86FF1F38B5064C002305460846236000F04CF8FB
:40314000431C02D1236803B12B6038BD0C86FF1F38B5074C054608461146002222601A4600F042F8431C02D1236803B12B6038BD0C86FF1F10B5C9B202449042034605D039
:403180001C7801308C42F8D1184610BD002010BD7047704738B5074C054608461146002222601A4600F028F8431C02D1236803B12B6038BD0C86FF1F024B58221A604FF0C8
:4031C000FF3070470C86FF1F024B58221A604FF0FF3070470C86FF1F024B58221A600020704700BF0C86FF1F024B58221A604FF0FF3070470C86FF1F024B58221A604FF006
:40320000FF3070470C86FF1F000000004661696C656420746F2073657420776C6F636B0D00000000535049206661696C7572650D0000000053657420737461746520322017
:403240002D206C6564312046554C4C2C206C6564322046554C4C2E206C656433204F46460D0000005365742073746174652033202D206C6564312046554C4C2C206C65641D
:40328000322046554C4C2E206C6564332046554C4C0D00005365742073746174652034202D204359434C4520414C4C2073616D652070686173650D005365742073746174D0
:4032C000652035202D204359434C4520414C4C20646966666572656E742070686173650D000000005365742073746174652036202D204C494D5020484F4D45202D20536559
:403300007420616C6C206368616E6E656C73204F464620616E642073746F7020706F6C6C696E670D00000000536574207374617274207374617465202D20696E642D6F6E91
:403340002C206C6564312046554C4C2C206C656432204F46462E206C656433204F46460D00000000626F6172645F6C6564207374617465206368616E67656420746F2046AC
:403380004153540D00000000626F6172645F6C6564207374617465206368616E67656420746F20534C4F570D00000000000000000100000002000000143500004435000017
:4033C0007435000055736572204F50454E2068616E646C657220666F72206C65642025640D0A0000557365722053484F52542068616E646C657220666F72206C656420256B
:40340000640D0A007365745F6C65645F73746174653A20696E76616C6964204C45440D004E6F204C4544204857202D20696E6974206661696C65643F0D0000004661696C8F
:40344000656420746F20736574206272696768746E6573730D0000004C454420256420696E6974206661696C65640D0A00000000436F756C64206E6F7420726567697374AA
:4034800065722053484F5254206572726F722068616E646C657220666F72204C45442025642C206572726F722025640D0A000000436F756C64206E6F7420726567697374EC
:4034C0006572204F50454E206572726F722068616E646C657220666F72204C45442025642C206572726F722025640D0A000000004C45442025643A204661696C656420746F
:403500006F20736574206272696768746E6573730A0000004C454431202D207468697320636F756C6420626520696E666F726D6174696F6E20666F722068616E646C6572D9
:40354000000000004C454432202D207468697320636F756C6420626520696E666F726D6174696F6E20666F722068616E646C6572000000004C454433202D20746869732089
:40358000636F756C6420626520696E666F726D6174696F6E20666F722068616E646C6572000000004661696C656420746F20726561642053504920666F7220646174612091
:4035C000766572696669636174696F6E25640D0A00000000535049206461746120777269746520616E642072656164206D69736D6174636821203078257820213D203078E6
:4036000025780D0A000000005350492072656164204641494C45442025640D0A00000000435243204552524F520D00005056494E5F55564C4F0D000055564C4F0D000000D8
:403640006C65645F69735F656E61626C656400006C65645F6661756C745F63616E63656C000000006C65645F6661756C740000006C65645F69735F6661756C747900000027
:403680006C65645F64696D6D5F736574000000006C65645F736574006C65645F7365745F6272696768746E6573730000010204001020400005070900040608000B0D0F0007
:4036C0000A0C0E00190000001A0000001B000000390E0000FD0D0000C10D0000850D000025733A20426164204C45442049440D0A000000004C4544202564204F43500D0A5E
:40370000000000004C45445F5357202564204F43500D0A004C4544202564204F50454E0D0A0000004C45442025642053484F52540D0A00004953455420636F6D707574616F
:4037400074696F6E204F766572666C6F770D00004953455420636F6D7075746174696F6E204F766572666C6F77202830782578290D0A00004E4F54453A20436F6D707574BD
:40378000656420495345543D257820666F7220496C65643D2575206D410D0A0057726974696E67207265672030782578204641494C4544210D0A000057726974696E6720A8
:4037C0006C6F77207265672030782578204641494C45442E20496620574C4F434B20776173207365742074686973206D6179206D6573732D75702065766572797468696E54
:40380000672E0D0A0000000057652073686F756C642070726F7061626C79206A757374206B6565702072652D747279696E672E20446F722064656D6F207765206A75737462
:4038400020676976652D75702028666F72206E6F77292E0D0000000025733A20496E76616C6964206272696768746E6573732030782568780D0A00004F4E00004F46460096
:403880004661696C656420746F207265616420696E697469616C204C4544207374617475730D00004C454420257520696E697469616C207374617475732025730D0A000008
:4038C0004661696C656420746F207265616420696E697469616C204C4544206272696768746E6573730D00004661696C656420746F20736574204D41582063757272656EF6
:403900007420746F202575206D410D0A000000004661696C656420746F20656E61626C65204C45442025642064696D6D696E670D0A0000004C4544206572726F72206368DE
:40394000616E6E656C20256420627574204C4544206E6F742079657420696E697469616C697A65640D0A00006770696F3A202575206973206E6F7420612076616C6964209F
:4039800070696E006770696F3A2070696E202575206D61707320746F205031322E352C207768696368206973206E6F206C6F6E67657220617661696C61626C6520666F7285
:4039C000204750494F207573650000006770696F3A2070696E20257520646F6573206E6F7420737570706F7274206469676974616C20492F4F0000006770696F3A206361D6
:403A00006E6E6F7420777269746520746F2070696E2025753B2070696E206973207265736572766564000000080100024750494F20696E697420646F6E650D00535049204D
:403A4000696E697420646F6E650D00004C45442070696E20636F6E666967757265640D0044454D4F20416C6976650D006275733128737069293A20535049206861732062B1
:403A800065656E20656E61626C65642E000000006275733128737069293A2053504920686173206265656E2064697361626C65642E000000004F0040240040510040300007
:403AC00000000140001000140140000800400140000A004C01400002005001402000000010450040D8080048080018450040E0080048080060520040E80800480600430040
:403B0000C083FF1F00000000000000000000000000000000000000000000000000000000000000000000000000000000000000000000000000000000000000000000000024
:403B4000000000000000000000000000000000000000000000000000000000000000000000000000232D302B2000686C4C0065666745464700303132333435363738394108
:403B8000424344454600303132333435363738396162636465660000F8B500BFF8BC08BC9E4670474D000000B51C0000F8B500BFF8BC08BC9E46704729000000D03B0000FF
:403BC000C880FF1F60030000E80100000000000000000000FFFFFFFF00000000000000000001000015000000000000000000000000000000140000001D00000002000000CE
:403C000063500040C6510040030000000000000000000000020000001850004036510040000000000000000000000000020000001950004036510040010000000000000053
:403C400000000000020000001A50004036510040020000000000000000000000020000001B50004036510040030000000000000000000000010001001C50004036510040E3
:403C8000040000000100000000000000010001001D50004036510040050000000200000000000000010001001E500040365100400600000003000000000000000200000000
:403CC00011500040265100400100000000000000000000000200000012500040265100400200000000000000000000000200000013500040265100400300000000000000AF
:403D00000000000002000000145000402651004004000000000000000000000002000000155000402651004005000000000000000000000002000000165000402651004060
:403D4000060000000000000000000000020000001750004026510040070000000000000000000000020000000D500040165100400500000000000000000000000200000089
:403D80000F5000401651004007000000000000000000000000000000000000000000000000000000000000000000000002000000105000402651004000000000000000005D
:403DC000000000000200000005500040065100400500000000000000000000000200000006500040065100400600000000000000000000000200000007500040065100402B
:403E0000070000000000000000000000020000000A500040165100400200000000000000000000000200000078500040F651004000000000000000000000000002000000A3
:403E400079500040F6510040010000000000000000000000020000007D500040F6510040050000000000000000000000020000000B500040165100400300000000000000CF
:403E800000000000020000000C50004016510040040000000000000000000000020000001F500040365100400700000000000000000000001086FF1F0000A08C4019010000
:403EC0004800000000A24A0400000000043B0000243B0000443B000000000000000000000000000000000000FE3A0000000000000000000000000000000000000000000035
:403F000000000000000000000000000000000000000000000000000000000000000000000000000000000000C083FF1F000000000000000000000000000000000000000020
:403F40000000000000000000000000000000000000000000000000000000000000000000000000000000000000000000000000000000000000000000000000000000000041
:403F80000000000000000000000000000000000000000000000000000000000000000000000000000000000000000000000000000000000000000000000000000000000001
:403FC00000000000000000000000000000000000000000000000000000000000000000000000000000000000000000000000000000000000000000000000000000000000C1
:404000000000000000000000000000000000000000000000000000000000000000000000000000000000000000000000000000000000000000000000000000000000000080
:020000040003F7
:0200000480007A
:4000000007450040064F0040045200400264004003650040010101402E0201400B030140340401401D0501404A080140320901402B0A0140250B0140340C0140180D0140FF
:40004000340E0140150F01402E1401401015014037160140181701404E18014044190140581A01403B1B014008400140094101401242014008430140024401400A450140D6
:4000800005460140034701400948014007490140094C0140044D01400A500140025101400501060107010A010B010C01630101200A360D2016D21920223609401030112849
:4000C0001C90850D8F0D870D880F890FE2024013410549FF4AFF4BFF4F01501852805A045B045D115F016040624064406540668068806A806C806E80C013C104C9FFCAFFB0
:40010000CBFFCD83CE03CF01D018D201D301D610DA04DB04DD11DF01E040E240E440E540E680E880EA80EC80EE8042604340462047804D4069406A4077C0D05BD210E4020B
:400140004013410449FF4AFF4BFF4D834E034F0150185A045D015F016040624064406540668068806A806C806E808601AE01B001BE01C013C105C5ECC620C80BC9FFCAFFC0
:40018000CBFFCD83CE03CF01D018D401D804DA04DB04DD11DF05E040E240E440E540E680E880EA80EC80EE80062017401E8042604340462047404D444F0156205D045E80FC
:4001C0005F016F027D408302914092409B409E20C020C480D05BD210D6D0DE10E410EC04EE0201010508072109040D0111221308151019401D012140250129072B182D01B3
:40020000333F354039283F0459045F018001825E8442860488778A088C46904698399A069C42A046AA46AC04AE20B070B40FB608B820BA03BE40C024C103C260C405C5DE7F
:40024000C6F0C7CBC83BC9FFCAFFCBFFCC22CEF0CF08D004D409D804DA04DB04DF01E2C0E440E501E610E711E8C0E901EB11EC40ED01EE40EF010102032A09010A06100869
:4002800012021302184019521A04251027282F6A3502360837603D203E063F80404042044308488149245108522A59455A106280821294C096049D1A9E02A280A488A508D1
:4002C000A620A72AB401C00FC20BC40BCAF0CCF0CEF0D007D20CD60FD80801010421050C06020A010C880D010E0312EC15011612180419011A431F012104230224E0250237
:40030000270429022B082F01300F33013410350E36E039203E403F045440580459045B045F0185019101A901B701BF40D904DF010040012809080A441308180219201A4008
:400340002004220823082680291A2B022F08308831403320350238843A023E046140622894409604A708C007C20EC404CA2FCC8ECE4BD80EE410EC04EE024016410449FF1A
:400380004AFF4BFF4F01501852805A045B045D115F016040624064406540668068806A806C806E8086018A038C069A05B407C012C104C9FFCAFFCBFFCD83CE03CF01D018AD
:4003C000D201D301D610D804DA04DB04DD11DF01E040E240E440E540E680E880EA80EC80EE80004403080A04180441204240434047824F206A406B0277C0940496409F42B8
:40040000A120A310A804C007C202D09DD220E402E8044012410449FF4AFF4BFF4D834E034F0150185A045D015F016040624064406540668068806A806C806E808B019F0130
:40044000B701BF40C016C104C5ECC620C80BC9FFCAFFCBFFCD83CE03CF01D018D401D904DA04DB04DD11DF05E040E240E440E540E680E880EA80EC80EE80264037403F2072
:4004800041204240434247424F25552057105E805F056F017F028701CC10CE20D09DD220D6D0DE104056410449FF4AFF4BFF4F01501852805A045B045D115F016040624076
:4004C00064406540668068806A806C806E80C056C104C9FFCAFFCBFFCD83CE03CF01D018D201D301D610DA04DB04DD11DF01E040E240E440E540E680E880EA80EC80EE805D
:400500004240470148084B404C084F406E406F01734097409F01A008AF02D081D23CEA0139023F014056410449FF4AFF4BFF4D834E034F01501859045A045D015F01604025
:40054000624064406540668068806A806C806E809201AA01B601BE40C056C104C5ECC702C813C9FFCAFFCBFFCD83CE03CF01D018D401D804DA04DB04DD11DF05E040E24025
:40058000E440E540E680E880EA80EC80EE800B40100819402502408043014701480849054B404C084F40500859456B0278808902C208C402D081D23CD60BDE08E620007F84
:4005C0000280041F062008C00A080CC00E011080169F1AFF20C02202266028C02A042C902E4036FF3E405602572858045B045F018030820F8454850186088B018C0C8E507F
:40060000905C94119501962298219A1E9C249E109F01A05CA502A850AA0CAC08AF01B040B20FB302B440B630B701BA80BE11BF44C065C102C6CBC70EC81CC9FFCAFFCBFF16
:40064000CEF0CF44D00CD401D804D904DA04DB04DD33DF01E6C0EA40EB0201420310050A0602070409010A160D080E040F801008120213021541171819291A121B481F4087
:40068000224429442A042B01328838243A203B044024422049404A0850105180520458225A8867206C486D436F7776027702920494809602978099029B089D299E029F423A
:4006C000A108A202A408A501A76AAC01C0FDC27FC4FBCA0ACC0ACE06D004D20CD60FD840EE08001C02220503060307640B400C090E10104014101503172C19101C141D4AF4
:400700001F242348242C2611283029032A0C2B042F2530603110330F341F356838023B283F01580459045C335F01805282288313844085318630870E880D8C0D930C941176
:4007400095319662970698329A449C029D2C9E0D9F03A00DA708A80DAC0DB330B470B60FB70FB908BAA0BB80BF04C002C504C9FFCA07CBFFCC40CD20CEF0CF05D008D80420
:40078000D904DA04DC30DD03DF01E040E1A8E240E32000400280032004040502070509810A200E16120813041752184019011B201C041E021F1022092304268027202901ED
:4007C0002A202B012D04328833203501368838203B043F0647204C104D044E105501570186019214972499029A209B57A180A688A701A802A904C0FDC2EDC4D6CA4DCCDE11
:40080000CEC6D020E402EA013384368037023A808701CCF0CE10E2402F8086019B019E809F06A680A780CA80E44022805B01638083408E1096229B019E809F04A680AA1038
:40084000AF02C810D640D840E220EC20EE401A221E10661096329E809F04C670D8807220DC01134053015F0166088608AA20C402D401D601D8018F019701AB01AF40E40858
:400880009040B440E802661069046C2088208A109E909F04D880DAC02A809E80AB04AD04CA10EA80EE400C401720604090409C40AC40C201C401D80274048404AB20DE04B2
:4008C0000003021408020A020C010E03100B12141A021C0900FF0103010101010101010101010101000000009080000040000000E000000000000000940068809400A0003A
:40090000000000002300000000000000FC03030040000000FF000000380000008F7070000000000000000000000000000000000000000000000000000000000000000000AC
:400940000000000000000000000000000000000000000000000000000000000000000000000000000000000000000000000000000000000000000000000000000000000077
:400980000000000000000000000000000000000000000000000000000000000000000000000000000000000000000000000000000000000000000000000000000000000037
:4009C00000000000000000000000000000000000000000000000000000000000000000000000000000000000000000000000000000000000000000000000000000000000F7
:400A000000000000000000000000000000000000000000000000000000000000000000000000000000000000000000000000000000000000000000000000000000000000B6
:0200000490006A
:0400000000004005B7
:0200000490105A
:04000000BC90ACAF55
:0200000490303A
:02000000C83EF8
:0200000490402A
:4000000000000000000000000000000000000000000000000000000000000000000000000000000000000000000000000000000000000000000000000000000000000000C0
:400040000000000000000000000000000000000000000000000000000000000000000000000000000000000000000000000000000000000000000000000000000000000080
:400080000000000000000000000000000000000000000000000000000000000000000000000000000000000000000000000000000000000000000000000000000000000040
:4000C0000000000000000000000000000000000000000000000000000000000000000000000000000000000000000000000000000000000000000000000000000000000000
:0200000490501A
:0C00000000012E16106900012E2ED8A75A
:00000001FF